:100000000C94E20A0C940A0B0C940A0B0C940A0B45
:100010000C940A0B0C940A0B0C940A0B0C940A0B0C
:100020000C940A0B0C940A0B0C94C7120C94361304
:100030000C940A0B0C940A0B0C940A0B0C940A0BEC
:100040000C940A0B0C940A0B0C940A0B0C940A0BDC
:100050000C940A0B0C940A0B0C940A0B0C94681564
:100060000C940A0B0C940A0B0C940A0B0C940A0BBC
:100070000C940A0B0C940A0B0C940A0B0C940A0BAC
:100080000C94B2150C940A0B0C940A0B0C940A0BEA
:100090000C940A0B0C940A0B0C940A0B0C940A0B8C
:1000A0000C940A0B0C940A0B0C940A0B07087EFFA5
:1000B000D3CBFF7E00C4C6FFFFC0C000E2F3DBDB92
:1000C000CFC600DBDBDBDBFF7E000F1F1818FFFF56
:1000D00000DFDFDBDBFB73007EFFDBDBFB7000039D
:1000E000030303FFFE0066FFDBDBFF66000EDFDBC2
:1000F000DBFF7E00060800000C0C121212120C0C22
:100100000000000000000C0C0C0C000000000000BF
:100110000C0C1E1E1E1E0C0C00000C0C12122121B9
:10012000212112120C0C2D2D12122121212112122B
:100130002D2D212112120000000012122121212157
:1001400000000000000000002121802BACD44AD325
:10015000AA44A80080000000000000000000000089
:10016000000000000000000000000000000000008F
:10017000000000000000000000000000000000007F
:10018000000000000000000000000000000000006F
:10019000000000000000000000000000000000005F
:1001A000000000000000000000000000000000004F
:1001B000000000000000000000000000000000003F
:1001C00000000000A040AC12AB84D2B9AAD5F5EE75
:1001D00055F84A11AAC0000000000000000000000D
:1001E000000000000000000000000000000000000F
:1001F00000000000000000000000000000000000FF
:1002000000000000000000000000000000000000EE
:1002100000000000000000000000000000000000DE
:1002200000000000000000000000000000000000CE
:1002300000000000000000000000000000000000BE
:1002400000002A91AAE45AEF55FF55AA59D5AA4EA3
:1002500055B7E915AA4180008000000000000000A9
:10026000000000000000000000000000000000008E
:10027000000000000000000000000000000000007E
:10028000000000000000000000000000000000006E
:10029000000000000000000000000000000000005E
:1002A000000000000000000000000000000000004E
:1002B000000000000000000000000000000000003E
:1002C000A0A4EA1BABA553AE5FABD5BBABD5AA557B
:1002D00055BBD7EF54B85A91AA44A00000000000C3
:1002E000000000000000000000000000000000000E
:1002F00000000000000000000000000000000000FE
:100300000000000080C040E0B0E02010A0008000AD
:1003100000000000000000000000000000000000DD
:1003200000000000000000000000000000000000CD
:100330000000000000000000000000000000A81104
:10034000A9E452EF54BB55AA55AAB55BAAD5AA5544
:10035000ABBB5B13AD5BB516AA44AA00000000005E
:10036000000000000000000000000000000000008D
:10037000000000000000000000000000000000007D
:100380000040AAF164BF5DAE7AAA55EB5AA46A1583
:10039000BA74E0000000000000000000000000004F
:1003A000000000000000000000000000000000004D
:1003B0000000000000000000000000008044AA11BE
:1003C0007FBB55EE55BB55AAD5AA5E550205020561
:1003D00006030503020402050204020102040000F0
:1003E000000000000000000000000000000000000D
:1003F00000000000000000000000000000000004F9
:1004000002040502010705020502070302060503AF
:1004100002040201020402040000000000000000C7
:1004200000000000000000000000000000000000CC
:1004300000000000000000000004020002040206A8
:100440000503050205030506070205050000000077
:10045000003E5B4F5B3E3E6B4F6B3E1C3E7C3E1C4A
:10046000183C7E3C181C577D571C1C5E7F5E1C0090
:10047000183C1800FFE7C3E7FF0018241800FFE747
:10048000DBE7FF30483A060E2629792926407F050A
:100490000507407F05253F5A3CE73C5A7F3E1C1C20
:1004A00008081C1C3E7F14227F22145F5F005F5FE0
:1004B00006097F017F006689956A606060606094CC
:1004C000A2FFA29408047E040810207E20100808D1
:1004D0002A1C08081C2A08081E101010100C1E0CDC
:1004E0001E0C30383E3830060E3E0E06000000006E
:1004F0000000005F00000007000700147F147F1455
:10050000242A7F2A12231308646236495620500099
:1005100008070300001C2241000041221C002A1C85
:100520007F1C2A08083E0808008070300008080870
:100530000808000060600020100804023E51494590
:100540003E00427F400072494949462141494D33AE
:100550001814127F1027454545393C4A4949314115
:10056000211109073649494936464949291E0000E3
:100570001400000040340000000814224114141438
:100580001414004122140802015909063E415D5924
:100590004E7C1211127C7F494949363E414141222D
:1005A0007F4141413E7F494949417F090909013E57
:1005B000414151737F0808087F00417F410020407E
:1005C000413F017F081422417F404040407F021C90
:1005D000027F7F0408107F3E4141413E7F090909A7
:1005E000063E4151215E7F09192946264949493273
:1005F00003017F01033F4040403F1F2040201F3F39
:100600004038403F631408146303047804036159BD
:10061000494D43007F4141410204081020004141FF
:10062000417F0402010204404040404000030708AB
:100630000020545478407F284444383844444428A7
:10064000384444287F385454541800087E0902184E
:10065000A4A49C787F0804047800447D40002040D6
:10066000403D007F1028440000417F40007C04781A
:1006700004787C080404783844444438FC18242462
:100680001818242418FC7C080404084854545424E2
:1006900004043F44243C4040207C1C2040201C3C5F
:1006A0004030403C44281028444C9090907C446456
:1006B000544C4400083641000000770000004136E9
:1006C000080002010204023C2623263C1EA1A1616F
:1006D000123A4040207A38545455592155557941A1
:1006E0002154547841215554784020545579400C78
:1006F0001E52721239555555593954545459395559
:100700005454580000457C410002457D420001459B
:100710007C40F0292429F0F0282528F07C54554508
:10072000002054547C547C0A097F4932494949329B
:100730003248484832324A4848303A4141217A3AB0
:1007400042402078009DA0A07D39444444393D407A
:1007500040403D3C24FF2424487E4943662B2FFC27
:100760002F2BFF0929F620C0887E090320545479D5
:10077000410000447D413048484A32384040227AA6
:10078000007A0A0A727D0D19317D2629292F282623
:100790002929292630484D4020380808080808082B
:1007A0000808382F10C8ACBA2F102834FA00007B84
:1007B000000008142A142222142A1408950022008A
:1007C00095AA005500AAAA55AA55AA000000FF0044
:1007D000101010FF00141414FF001010FF00FF1081
:1007E00010F010F0141414FC001414F700FF0000B3
:1007F000FF00FF1414F404FC141417101F10101F32
:10080000101F1414141F00101010F0000000001F1F
:10081000101010101F10101010F010000000FF102A
:100820001010101010101010FF10000000FF140026
:1008300000FF00FF00001F10170000FC04F4141458
:100840001710171414F404F40000FF00F714141424
:1008500014141414F700F7141414171410101F10A4
:100860001F141414F4141010F010F000001F101FC7
:100870000000001F14000000FC140000F010F01035
:1008800010FF10FF141414FF141010101F000000AC
:1008900000F010FFFFFFFFFFF0F0F0F0F0FFFFFFB0
:1008A0000000000000FFFF0F0F0F0F0F3844443807
:1008B000447C2A2A3E147E02020606027E027E0242
:1008C00063554941633844443C04407E201E200661
:1008D000027E020299A5E7A5991C2A492A1C4C729E
:1008E00001724C304A4D4D303048784830BC625A25
:1008F000463D3E494949007E0101017E2A2A2A2AB5
:100900002A44445F444440514A444040444A514090
:100910000000FF0103E080FF000008086B6B083651
:1009200012362436060F090F0600001818000000C2
:100930001010003040FF0101001F01011E00191DB1
:100940001712003C3C3C3C0000000000F0F89C8E7C
:100950008783878E9CF8F00000FEFF0303030303E8
:10096000070EFCF80000FEFF0303030303070EFC61
:10097000F80000FFFF00000000000000FFFF000083
:10098000FEFF8383838383C7EE7C380000F8FC0E70
:1009900007030303070EFCF800003F7FE0C08080E0
:1009A000C0E07F3FFFFF01010101010101FFFF00E6
:1009B00000FFFF0C0C0C0C1C3E77E3C100007FFF16
:1009C000C0C0C0C0C0E0703F1F00001F3F70E0C04B
:1009D000C0C0E0703F1F00007FFFC1C1C1C1C1E3C3
:1009E000773E1C00001F3F70E0C0C0C0E0703F1F9A
:1009F000000000000001FFFF01000000D5F08D1491
:100A0000A1C881CFD9F1AF20009302FA004B02FABE
:100A1000009302FA000000FA00EE01FA000000FA6A
:100A2000004B02FA009302770100007D00B801FA42
:100A30000000007D000B02FA0000007D00930277A9
:100A4000010080631F8874E9743AA54AA9D2E97449
:100A50003A9D4E56B29295AC743A59C94AA79395AD
:100A6000AC743A59C94A56B2D2E9942AA54AA7D3D6
:100A7000E974B29295AC64A5D3C94A56B292954E28
:100A8000A79395AC74B292954E272B59C94A56B28A
:100A9000D2E9942AA54AA7D3C94A56B292954E27BD
:100AA0002B5929554A95AC64A5D3C94A56B292959B
:100AB0004EA75429553A9D4E6B3ECFEB9CB4DBEDCF
:100AC000762AE7A4AB5DAD6E757129E9F476E59CF5
:100AD00022734EBADAD5EA561797735247ED9C54F3
:100AE000BDEA554FE59C54BDEA95548E4B2AA9B6F4
:100AF000CE6DA592543A5DED6AE79C22734EEAA84A
:100B00009C93AE76B5BAD5C5954E4B25553A3AE786
:100B1000A4AB5DAD6E7571DDEA4691E7F3D472FB6F
:100B2000AD6E75AB9BAADCE5B89C736EBB7552D1FC
:100B300065779554D249C564B7485A3A57BBDAD558
:100B4000AE2353CEB9ED763AE59CDB6E9D5464CA74
:100B500039B7557636E59CAB6425959DEC7217FC4C
:100B6000E6F9B44EA76B57BB743A9D4ED7AE76E903
:100B7000DAD52E9DAE5DEDD295AC5DED6A57BB4AE0
:100B8000A62B59BBCEA5D3E9CE75AE739DAB5D2523
:100B9000D395AC5DED6A57BB74256B57BBDAD5AE08
:100BA00092E9DAD52E9D4EA72B59BBDAD5AE7695B4
:100BB0004C57B292E9743A9D4EA7D3E9743A9D4ED0
:100BC000A7D3E9743A9D4EA7D3E9743A5D9A081207
:100BD00010007C38FCF0FCF0F8F0FFB2FFBAFFB276
:100BE000FFBAFFB2FFB4FFF0FE70FE7CFFAEFF2E37
:100BF000FF1C7F003E000000010001000100070211
:100C000007010700030001000100010001000100CD
:100C1000010001000100000000003E1C7F2EFFAE1D
:100C2000FF7CFF70FEF0FEB4FFB2FFBAFFB2FFBA66
:100C3000FFB2FFF0FFF0F8F0FC38FC007C00000091
:100C4000000001000100010001000100010001009D
:100C50000100030107020700070001000100010075
:100C6000007F3F70E59CE376CE9129E7DCE52E77A7
:100C7000B9CB5D5CCE3977B9CB5D6E3BBB730E678C
:100C8000CE3977B9CB5D6E3B9B73CE5DEE7297DB51
:100C9000CEB6DD3AE7DC767AE59CBBDCE52EE7A450
:100CA000E272CEC9F53AE79CE372CEB9ED76EBA4D9
:100CB000E276CEB9CB5DEE724E2A2EE71C9972CE4B
:100CC0006D2F77B9CB5D5CCE399D4EE79C735CDBB5
:100CD000AD73CE6DC7E856D9ED76A9E46AFBAF7A5D
:100CE000D5FFFF5229A7943CF5A9FF55ABDB6EA7B2
:100CF0005A2A79EA53FFAB56B77DD52B79EA53FFD1
:100D0000AB56B7FDFFEDA94F7D39E71C97928A5787
:100D10006D576C4B25B7A73EF5E52E9D3BF5A99584
:100D2000B49F7AC2B45272254F7DEAFFFF5FAAA535
:100D30005272BB3DB5554AE79CB3FF6F4F7DEA89C0
:100D40005676D5FFFF9FFAD413A9EDCE5DEE72A7BC
:100D5000B66A5E251524E59CE356D2D9ED76E79C6C
:100D60002277CEB9ED76EB9CE372CED9ED76E79C97
:100D700062DB2ABBDDEE9C532EAFA4B3DBEDCE3994
:100D80004556BBDAD5AE76B5734EB9789D73B8AA21
:100D90005DED6A57BBDA39A7C89C736EBBDD6EA3E5
:100DA00073CEB9DAD5AEB6DBB99C73AE76B5ABED22
:100DB000762EE79CDD6E77CE2918494945AEA462B0
:100DC0005B2AB9DD6EB7B329A9E476BBDD4EBF540B
:100DD00072BBDD2A3BF976ABA492DB8992CA4975D6
:100DE000B9CB5DCE49A5D3E99C73CE5DEE72977306
:100DF00052E99573CE6DB75B65675B2AB9DD6E9579
:100E00009D4C4925B7DBADB2932BA9E476BB557653
:100E1000B6A592DBED56D9C99454769D5D2AA9C832
:100E2000945472BBDD2A3B3E957476BBDD39A7C86E
:100E30006A57BBDAD5AE76CE2932E79CAB5DED6A58
:100E4000BB9DDB39E7B6DBAD730E57CE396E259D02
:100E50005DF576E79C2277CED9ED76E79C22734A42
:100E6000BAED76EB5CCDA5A4B3DBEDCE3945E69CBF
:100E700073DBED761BBD73CED5AE76B573723225BE
:100E80009DDD6E77CE2932E71C5774CE392EE79C54
:100E9000AB5DED6AE7E4185752D97576A9A42253E1
:100EA00052B12D95DC6EB7DBE9964A6EB7DBED6C7F
:100EB0004A2A3225955D47A6A4625B3A77B95B5D05
:100EC000EE72974EA773CE39BBDD39E7745239E71E
:100ED0006E75B9CB293B99928A5C4945A6A492DBF1
:100EE000ED56D9D9974A6EB7DBED6C4A2A722515B3
:100EF000DB52C9ED76ABEC64DBAD924A6E47FB7614
:100F00006BB76F95DCBBED7BB77D5FBBDAD5AB5EB6
:100F1000B5734BB555BDEA55AF7AD5CE394565B7F2
:100F20006FEDF6F57A29B76FA5B2FFEA76F576CBC5
:100F3000B45DE7D36EBB22DB4A65FFFFFF9D738A7A
:100F40004A2AFBFFFFBF558ECA6E77CE39E7ECAA5F
:100F500099B6EBDBD5AE5EF5AA9D534E6DED76E707
:100F60009C54D66DDF2BE9EC76BB734BB5DD6EED93
:100F700096693BEB767C4A25DD763BB9549272EB61
:100F8000AC52CECD2A9574B5AB5D6DB7534B25DD14
:100F900076BB547236E7A4DD6E5752392EA92495DC
:100FA0005452A5D74BA924B55412555249B7DD2E3A
:100FB000959C4D2AE96A57BBDA6EA7924AAAF47A41
:100FC0002995A4924ABAED762995A4924ADAED764B
:100FD000BB9D5A2A499DDE4A25D53674011E18004C
:100FE000E040F0E0F8F0FCF8FCF8FEFCFEFCFEFC53
:100FF000FEFCFFFEFFFEFFFEFFFEFFFEFFFEFF7E8C
:10100000FF3EFF3EFF7CFF1CFEFCFEFCFEF8FEF8F0
:10101000FEB4FFAEFF5EFF4EFF00FF0000000100C8
:101020000301070307030F070F071F0F3F177F2F4A
:10103000FF4FFFBFFFCFFF8FFFCFFFBFFF4EFF2E42
:10104000FF177F0F3F071F070F030F030F051F0E2B
:101050001F0F1F0E1F001F000000000000000000F7
:10106000000000000000000000000000000001007F
:10107000030103010301030003000100000000005D
:101080000000000000000000000000000000000060
:1010900000000000FF4EFF5EFFAEFFB4FFF8FEF859
:1010A000FEFCFEFCFE1CFE7CFF3EFF3EFF7EFFFEC4
:1010B000FFFEFFFEFFFEFFFEFFFEFFFCFFFCFEFC4F
:1010C000FEFCFEF8FEF8FCF0FCE0F840F000E0006A
:1010D0001F0E1F0F1F0E1F051F030F030F070F0704
:1010E0001F0F3F177F2EFF4EFFBFFFCFFF8FFFCF9A
:1010F000FFBFFF4FFF2FFF177F0F3F071F070F0394
:101100000F030701070003000100000000000000BA
:1011100000000000000000000000000000000000CF
:1011200000000000010003010301030103000300AC
:1011300001000000000000000000000000000000AE
:1011400000000000000000500FA49295ACA42253B0
:10115000B292959C4DC94A56B22253B29295ACC8F0
:1011600094AC64252B72E5D2D974295595AA4A9579
:1011700052F9745E91A7D34AA6A353329D56E44A0E
:1011800056B29215593AAD643A3A252B594945A6BB
:1011900064252B395B3AAD64BAC7D2ACB3ADD3E9A1
:1011A000E8D2E9EC74E97476F67D3A9FBB743A773D
:1011B000E96C3A39B6665FA7B3D3A7D3D9D9679F8D
:1011C00075B659679F1500001408EA0ACE000000A2
:1011D00033002D09D402000036012D09CE00000095
:1011E0003300B909CE0000003300EA0ACE00000047
:1011F00033005B12CE00000036015B12CE0000000F
:101200003601910E3B030000CE00EA0ACE0000003A
:1012100033002D09D402000036012D09CE00000054
:101220003300B909CE00000033002D09CE000000C4
:101230003300EA0ACE0000003601EA0ACE000000C0
:101240003601B9093B030000CE002D08CE00000096
:101250003300E006D402000036012D08CE00000065
:1012600033002D09CE0000003300B909CE00000084
:1012700033002D09CE000000330049073B03000076
:10128000CE002D09CE00000033004D0ACE00000034
:1012900033002D09CE00000033002D08CE000000E1
:1012A0003300EA0A9D01000067002D09CE0000000E
:1012B00033004D0ACE00000033002D089D010000D0
:1012C0006700400CCE0000003300EA0A7706008079
:1012D0005B12000000000044447C7C7C48441C1CE1
:1012E0001800686C7C5454547C7C78406404045C22
:1012F0007C7C7460747C4C04040044447D7D7D409F
:10130000400044447C7C7C4804447C7C7840400021
:1013100038387C7C545454585800000000000000B9
:101320000000000000000000000000000070F0F865
:10133000888A92FEFEFE80007070F8F8A8A8A8B017
:10134000B00000B0B8B8E8E8E8E8E8680008F8F8E5
:10135000F8F8908888F8F070007070F8F88888883D
:10136000F8F87070008888FAFAFA8000808282FEAD
:10137000FEFE80007070F8F8A8A8A8B0B0008888B9
:10138000F8F8F890883838300000000000000000BD
:10139000000000000000000000000000000000004D
:1013A0000000000000000002020303030302020029
:1013B000000000000000000000000000000000002D
:1013C000000000000000000000000000000000001D
:1013D000000000000000000000000000000000000D
:1013E0000000007F3FC02C6EB776FB7636BB95DBE6
:1013F000EDCA6E99ECF6ABBEEAAB5EF52A0CD9AD40
:101400004EA7D3E998EC96C96EBFD5AD6EB59DCD0C
:101410006EBFEAABBEEA55AFC290DDEA74BAED9694
:10142000C96ED57ABDB25B26BBB5CBF5DB2D93DD9E
:1014300032D9EDB7BAD5ADAC52C564B75FF5555FDB
:10144000F5AA5731D9EDAB5EF5AAAD92F0573AFA4D
:1014500074F4E9E8D2E9743A9D0E4DE9743A9D4E70
:1014600047978E2E1DDAD2E9743A9D0E5DE9743AE3
:101470001D6D3A4AA7ECABBEDC559FFAE672CA7EF8
:10148000EA5B9DDA2AE7DB2EDD7AF96D97BEEDF691
:10149000ABBEEAAB5EF5542955BBFAAAAFFAAA6F08
:1014A0007583C74A6FB7DBED76B6EDECDBD9B6B323
:1014B0006F67DB6EB7DBED76B6ED76BBDD6E83BDB9
:1014C000425BA0EBB2B5CA553A9FCF676B95AB7440
:1014D0003ED9C94EE607EFB64F76DEB95467BB94E6
:1014E000ECAECFA7E5D96AB57239C5AF64252B59E3
:1014F000912959C94A2A3225D36925D369452565D9
:10150000252BA9C894AC64256753B292959C2F32C1
:1015100025D36945A664252B39979495AC644597E6
:10152000CD66B3D9D4B2929554644AA6D3D1295981
:10153000C94A4932A5D349452565252BA9C894AC8C
:10154000642515992A59C94A49782B9F4F563A9BC9
:101550008D2F1B6835080B000202020000090400F1
:101560000001020200000524001001052401010110
:10157000042402060524060001070581031000402B
:1015800009040100020A00000007050202400000F1
:10159000070583024000000403090412010002EF62
:1015A00002014041233680000101020301417264BF
:1015B00075696E6F204C4C430041726475626F799F
:1015C0000000461611241FBECFEFDAE0DEBFCDBF0C
:1015D00011E0A0E0B1E0E6E3F1E402C005900D9275
:1015E000AE3DB107D9F726E0AEEDB1E001C01D92E6
:1015F000AB3CB207E1F71AE0C2EEDAE004C0219793
:10160000FE010E949320C13ED107C9F70E94D9165E
:101610000C9499200C9400008091EF0108956F9232
:101620007F928F929F92AF92BF92CF92DF92EF9272
:10163000FF920F931F93CF93DF936C01FA011491E4
:10164000319654913196C12FD0E0222309F1EE2436
:10165000E394F12C852F877011F4F12CE12CA52F48
:10166000A695A695A695AE0DBF2DB11DAC9FC00148
:10167000AD9F900DBC9F900D1124033011F4880F85
:10168000991F289FD001299FB00D1124EA0FFB1F3D
:10169000D601AC0FBD1F1A161B060CF0F6C080E871
:1016A000C816D1040CF0F1C0CB01850F911D18169E
:1016B00019060CF0EAC0603471050CF0E6C03097F2
:1016C00009F4E3C0362F3770CB0177FD079623E08E
:1016D000959587952A95E1F7282F77FF04C0332346
:1016E00011F02FEF280FEE24FF24EC18FD08D7FC93
:1016F00002C0F12CE12C90E89C19A038B1050CF443
:10170000912F9E19622F022E000C770B462F4095C9
:101710002F3F0CF040E0BB24B394852F877009F471
:10172000B12C569556955695B50E6B0D711D6930B9
:1017300071051CF058E0B52EB21AB41A240F50E807
:101740002503D0011124AC0DBD1DAE0DBF1D149F8E
:10175000E00CF11C1124C32E032E000CDD08033015
:1017600009F446C0AF014E0D5F1D6FEF70E0032E10
:1017700002C0660F771F0A94E2F760957095972E66
:101780008B2C820E821609F480C08D01035E1D4FE2
:10179000F12CE12CE91630F5FA01EE0DFF1DE49174
:1017A000F0E03F010C2C02C0660C771C0A94E2F7B3
:1017B00027FD05C0F8018081862386298083332395
:1017C00059F027304CF45801F0E8AF0EB11CF50188
:1017D0008081892187298083FFEFEF1AFF0A0F5F3D
:1017E0001F4FD8CF2F5F4C0F5D1FA058BF4FCACFE0
:1017F000C92ED12CEE0CFF1CEE0DFF1DA35EBD4FBC
:1018000060E870E06C197D09CC19DD098E01000FCC
:10181000111F41E050E07A01032E01C0EE0C0A9442
:10182000EAF7592F4B2D892E932ECF93DF93ED019D
:10183000EF96EF962296A590C590992059F0AE9C10
:101840005001CE9C600127302CF4F880D094FD200C
:10185000FB28F99222233AF0FC90C094FC20FA284D
:10186000FD920C94340C11965A9529F74A9551F033
:10187000582D23951124E00FF11DA60FB11DC60FA1
:10188000D11DD9CFDF91CF911124DF91CF911F913D
:101890000F91FF90EF90DF90CF90BF90AF909F900F
:1018A0008F907F906F9008954DE051E095E130E08A
:1018B00020E0FA0160E07081773519F080832F5FB6
:1018C0003F4F75966F5F6830B1F791504F5F5F4F34
:1018D0009111EFCF30931C0220931B0208950F93B8
:1018E0001F93462F2091BD063091BE06211530442E
:1018F0006CF40091AD061091AE062091AF063091C8
:10190000B0060115110520483105BCF01092C5063E
:101910008091C60681110EC08091190290911A0221
:101920008530910514F485E090E0059790931A02B4
:10193000809319021F910F91089590E0542F5770D2
:10194000E42FE695E695E69560E8E69F9001112480
:10195000FC01E35EFD4FE20FF31F208130E061E008
:1019600070E0052E02C0660F771F0A94E2F7262367
:10197000372302C0359527955A95E2F72130D1F6E5
:101980000B97E5E0F0E0BF010E946B209B01653101
:1019900088F6642F6551770BCB01BF010E946B2045
:1019A000683040F685E1869FF001879FF00D112495
:1019B000E35FFE4FE20FF31F8081873509F4A6CF66
:1019C000803309F0B7CF8091C606811103C083E050
:1019D0008093C60685E1869FF001879FF00D112454
:1019E000E35FFE4FE20FF31F81E3808380911B02D0
:1019F00090911C02019790931C0280931B0280918E
:101A0000190290911A0245E16403F0011124E35F89
:101A1000FE4FE20FF31F5081503209F001966150E2
:101A200098F784CFEDE1F2E0A0E0B8E000800EBCD2
:101A30008111012C1197A0FDFDCF0192B9F70DB4D2
:101A40000895FC0180911802882311F13FB7F894A2
:101A500082E08093E9002091F200822F90E0181636
:101A6000190614F481E090E0882339F0289844E6C0
:101A7000409317024091F1004083222339F02091D6
:101A8000F200211103C02BE62093E8003FBF089528
:101A90008FEF9FEF08952FB7F89483E08093E900CC
:101AA0009091E800892F807295FF04C09091F20018
:101AB00080E4891B2FBF089580910F0281110DC012
:101AC00082E080930B0284E080930C0210920E025D
:101AD00010920D0281E080930F028BE092E0089556
:101AE000CF93DF931F92CDB7DEB76983DC01ED9111
:101AF000FC910280F381E02D41E050E0BE016F5F78
:101B00007F4F09950F90DF91CF91089583E08093E7
:101B1000E9008091F200882319F08AE38093E800BD
:101B200008950E944B0D90E00895CF93DF931F928C
:101B3000CDB7DEB7FC018485958597FD08C02FEFF2
:101B40003FEF358724870F90DF91CF910895CE0125
:101B500001960E94210D019719F4898190E0F3CF3D
:101B60008FEF9FEFF0CF0F931F93CF93DF931F92D1
:101B7000CDB7DEB78C01FC018485958597FF0BC03E
:101B8000CE0101960E94210D019771F4898190E0A8
:101B9000F80195878487F801848595850F90DF91FA
:101BA000CF911F910F9108958FEF9FEFF1CFFC011F
:101BB0008485958597FD0BC09FB7F89482E080934C
:101BC000E9008091F2009FBF90E0019608959FB7D1
:101BD000F89482E08093E9008091F2009FBF90E04A
:101BE0000895409105025091060220910302309120
:101BF000040242175307B4F49091E8009570E1F3A2
:101C00009091E80092FD19C08093F1008091050247
:101C10009091060201968F739927892B19F48EEF04
:101C20008093E800809105029091060201969093BE
:101C300006028093050281E0089580E00895DF9216
:101C4000EF92FF920F931F93CF93DF93D82E8A01C9
:101C5000EB017B01E40EF51ECE15DF0559F0D7FE32
:101C600012C0FE0184910E94F10D21968111F4CFE2
:101C70000FEF1FEFC801DF91CF911F910F91FF90E0
:101C8000EF90DF9008958881EECF0F931F93CF934D
:101C9000DF931F92CDB7DEB782E0898342E450E044
:101CA00065E575E180E80E941F0E0E945C0DDC0175
:101CB00012960D911C910115110589F0D801ED9135
:101CC000FC910280F381E02DBE016F5F7F4FC80160
:101CD000099597FD04C0F80100851185ECCF898135
:101CE0000F90DF91CF911F910F910895615030F0C7
:101CF0002091F100FC0120830196F8CF289884E61A
:101D0000809317020895AF92BF92CF92DF92EF9225
:101D1000FF920F931F93CF93DF936C017B018B0195
:101D2000040F151FEB015E01AE18BF08C017D107E5
:101D300059F06991D601ED91FC910190F081E02D6F
:101D4000C6010995892B79F7C501DF91CF911F91C4
:101D50000F91FF90EF90DF90CF90BF90AF900895DC
:101D60003FB7F8948091E7019091E801A091E901D3
:101D7000B091EA0126B5A89B05C02F3F19F0019646
:101D8000A11DB11D3FBFBA2FA92F982F8827BC01D5
:101D9000CD01620F711D811D911D42E0660F771FFD
:101DA000881F991F4A95D1F708958F929F92AF92FD
:101DB000BF92CF92DF92EF92FF926B017C010E9463
:101DC000B00E4B015C01C114D104E104F104B9F07F
:101DD0000E94B00E681979098A099B09683E734010
:101DE0008105910580F321E0C21AD108E108F108CC
:101DF00088EE880E83E0981EA11CB11CE4CFFF90F2
:101E0000EF90DF90CF90BF90AF909F908F9008950C
:101E10008F929F92AF92BF92CF92DF92EF92FF92FA
:101E20000F931F93CF93DF936C017B018A01809105
:101E30000C01882309F45CC080911802882309F4FE
:101E400057C080910A0280FF05C08091E000826047
:101E50008093E000E801B12C8AEFA82E93E0892E50
:101E60002AE3922E209711F4BB20D9F10E944B0D4A
:101E700081110AC0AA94AA20D9F161E070E080E043
:101E800090E00E94D50EEECF8C171D0611F00CF0DD
:101E90008C2F9FB7F8948092E9002091E80025FDEF
:101EA00002C09FBFDFCF282F30E0C21BD30BF7014A
:101EB000815020F041914093F100FACFE20EF31EE1
:101EC000BB2021F09092E800B12CEBCF8091E8008C
:101ED00085FDE7CF9092E800BB24B394209709F3E7
:101EE000F3CF5D9884E680930902101611063CF04A
:101EF00081E090E0F6019383828310E000E0C80166
:101F0000DF91CF911F910F91FF90EF90DF90CF90D5
:101F1000BF90AF909F908F9008952091FC01E09129
:101F2000FA01F091FB01CF0102969093FB0180939F
:101F3000FA01222319F0859194910895808191816D
:101F40000895E1E7F0E080818D7F80831092910019
:101F5000469847981092F7010895CF92DF92EF923A
:101F6000FF92CF93DF930E948D0F811520E8920797
:101F700041F4DF91CF91FF90EF90DF90CF900C94E0
:101F8000A10F21E02093F701813020E8920751F45E
:101F90008091F8019091F9019093FB018093FA01EF
:101FA0000E948D0F97FD05C02091DF01222309F4C7
:101FB0005BC02091DE01211157C021E02093E00198
:101FC000EC01DF77209709F052C081E08093E101B6
:101FD00046983FE9C32E3FE0D32EE12CF12CCAEF07
:101FE000D0E0E0917B06F0917C060995811103C059
:101FF00081E08093E1018091E001882329F08091C4
:10200000E101882309F446C047980E948D0F00978C
:1020100009F444C09C01DE010E94681FDC01CB0171
:1020200029E0B595A795979587952A95D1F71092B0
:1020300090002AE020939100D0929900C0929800DD
:102040008093E2019093E301A093E401B093E50152
:1020500080917100826080937100DF91CF91FF9039
:10206000EF90DF90CF9008951092E001A9CF9E01EC
:1020700050E040E060E472E48FE090E00E94141FC2
:1020800069017A0181E0C81AD108E108F1081092CB
:10209000E101A7CF4699B8CF479AB7CF8FEF9FEF0F
:1020A000DC01C5CF0F9303E00E940F0B0F91089541
:1020B0002D9A0895BC0190E080E00C94D50E8FB16C
:1020C0008095807F669B88601C9B8460089580E07B
:1020D000EDE1F2E081118FEF0024819381938193F0
:1020E00081930394D1F71092EC011092EB011092BE
:1020F000EE011092ED0108959091FF01982329F4CB
:1021000090910002982381E009F480E00895CF9334
:10211000C82F0E945F10982F9C2381E09C1380E0C1
:10212000CF91089580E00C94120D1F93CF93DF930D
:10213000DC0130E020E050E040E011E0C1E0D0E020
:102140002617370791F114968C911497811115C0B9
:1021500014961C93149712968D919C911397ED9160
:10216000FC911197E80FF91FE4911596EC931597E0
:10217000019613969C938E93129714969C911497A4
:1021800015968C911597892349F0FE01022E02C005
:10219000EE0FFF1F0A94E2F74E2B5F2B990F149658
:1021A0009C9314972F5F3F4FCBCFCA01DF91CF9104
:1021B0001F9108952F923F924F925F926F927F925C
:1021C0008F929F92AF92BF92CF92DF92EF92FF9247
:1021D0000F931F93CF93DF9300D000D000D01F92B6
:1021E000CDB7DEB75C012B015A8349831C821B8269
:1021F0001D821E8268E070E0CE0101960E9495105B
:1022000001963C0168E070E0CE0101960E949510B5
:102210007C0161E070E0CE0101960E94951093016F
:102220002A0D3B1D121613060CF083C097012F5F79
:102230003F4FA901440D551D141615060CF079C029
:1022400053E0559447945A95E1F7890137FF02C04E
:10225000095F1F4F43E0159507954A95E1F72770F1
:102260003327232B11F00F5F1F4F282E21E02F83E0
:10227000312CF12CE12CD12CC12CC016D1060CF044
:1022800058C088248394912C61E070E0CE010196BF
:102290000E949510892B21F482E0880E911CF4CFC6
:1022A000B401CE0101960E949510019650E040E0E5
:1022B00048175907D8F5222011F02F81322AEF81D3
:1022C000EE0F71F5D201AC0DBD1DBD016F5F7F4FEB
:1022D00069307105A0F4B5016E0D7F1D6038710580
:1022E00070F4B695BA2FAA27B795A795AA0DBB1D6E
:1022F000AE0DBF1DA35EBD4F2C91322A3C922FEF35
:10230000E21AF20AE614F70474F02FEFC21AD20AA6
:1023100021E02F83F12CE12C4F5F5F4F3E2EC8CF81
:10232000EF83E32DF9CF21E02F83F6CF81E028263C
:10233000A4CF27960FB6F894DEBF0FBECDBFDF91B6
:10234000CF911F910F91FF90EF90DF90CF90BF90B2
:10235000AF909F908F907F906F905F904F903F9045
:102360002F90089580389105B8F460347105A0F479
:1023700020E191E061FD94E060FD990F62FD92958E
:10238000687F269FD0011124A80FA35EBD4F8C91BA
:1023900040FF03C0892B8C93089590958923FBCF30
:1023A0008F929F92AF92BF92CF92DF92EF92FF9265
:1023B0000F931F93CF93DF936D3089F0C090EB01A3
:1023C000D090EC016A30D1F41092EE011092ED0140
:1023D00088E0C80ED11CD092EC01C092EB0181E0E4
:1023E00090E0DF91CF911F910F91FF90EF90DF90E0
:1023F000CF90BF90AF909F908F9008950091ED0186
:102400001091EE01E5E06E9FE0011124C45BDB4F0B
:102410004801F12CF5E0E12CFF1629F0CE010196E0
:10242000FE01E490EC01B12CA12C4E2D4170B601BF
:102430006A0D7B1DC4010E94B211E694FFEFAF1A32
:10244000BF0A88E0A816B10481F7F394EFEF8E1A63
:102450009E0AF6E0FF12DECF0A5F1F4F1093EE01D7
:102460000093ED01BCCFEDE7F6E080859185A28574
:10247000B38580839183A283B383118A108A80E01D
:1024800090E8AFEFBFEF84879587A687B78780E294
:102490000C94540CCF92DF92EF92FF920F931F9304
:1024A000CF93DF9302E020E04AE451E065E170E081
:1024B00090E080E00E940F0B8DE0E82E81E0F82E86
:1024C000CBE0D0E0670105E110E0F601808120ED6E
:1024D000280F44EF50E0B801273038F08E3241F435
:1024E00020E044EF50E06D5F7F4FCE010E9452101C
:1024F000F5E1CF0ED11C0B5F1F4F0D33110529F7EE
:1025000025968FEFE81AF80AC437D105D9F6DF917E
:10251000CF911F910F91FF90EF90DF90CF90089592
:10252000CF92DF92EF92FF920F931F93CF93DF939F
:102530002091190230911A02CEE0C80F8AE0C82E0D
:10254000D12CE62EF12CC901B6010E946B20162F6A
:10255000D72F02E0282F4CEA50E0B7018C2F90E0F3
:102560000E940F0B212F3D2FC7502115310559F720
:10257000DF91CF911F910F91FF90EF90DF90CF905F
:102580000895089590E080E008950C94FE1E1F9237
:102590000F920FB60F9211248F939F938091E100B9
:1025A0009091E100937F9093E10083FF0FC0109220
:1025B000E90091E09093EB001092EC0092E390938D
:1025C000ED001092180298E09093F00082FF22C074
:1025D00093E09093E9009091F200992319F09AE327
:1025E0009093E80090910902992341F0909109029B
:1025F000915090930902911101C05D9A9091170238
:10260000992341F0909117029150909317029111E4
:1026100001C0289A84FF18C08091E2008E7E8160FC
:102620008093E2008091E1008F7E8093E1008091B1
:102630000A028E7E806180930A029F918F910F9093
:102640000FBE0F901F90189580FFF7CF8091E2008A
:102650008E7E80618093E2008091E1008E7E809387
:10266000E10080910A028E7E8160E5CF1F920F9279
:102670000FB60F921124CF92DF92EF92FF920F9339
:102680001F932F933F934F935F936F937F938F93FA
:102690009F93AF93BF93EF93FF93CF93DF93CDB708
:1026A000DEB76C97DEBFCDBF1092E9008091E800E5
:1026B00083FF25C068E0CE0145960E94760E82EF2A
:1026C0008093E8008D8987FF39C09091E80090FFE2
:1026D000FCCF982F907609F034C19E894F89588D90
:1026E0002F89F88C911131C0803861F580910802F2
:1026F0008093F1001092F1008EEF8093E8006C96C9
:102700000FB6F894DEBF0FBECDBFDF91CF91FF9122
:10271000EF91BF91AF919F918F917F916F915F9159
:102720004F913F912F911F910F91FF90EF90DF906C
:10273000CF900F900FBE0F901F9018959EEF909323
:10274000E800C7CF1092F100D5CF913059F4811134
:10275000D3CF4130510581F6809108028D7F80935F
:102760000802CACF933049F48111C6CF41305105D8
:1027700019F6809108028260F2CF953041F4809181
:10278000E80080FFFCCF20682093E300B5CF9630AF
:1027900009F0A9C00B8D1C8D22E01092E900109267
:1027A000060210920502F2122EC01092040210923C
:1027B00003020E94450E1F8299E09983FA8291E0FC
:1027C0009E8390EA98879AEF99872091050230912D
:1027D0000602275F3F4F3C832B838D831092E900D5
:1027E0001092060210920502109304020093030255
:1027F00049E050E0BE016F5F7F4F80E00E941F0EF6
:102800000E94450E79CF10930402009303020E94A8
:102810005C0DDC0112960D911C910115110509F456
:1028200051C1D801ED91FC910480F581E02DBE01EC
:102830006B5E7F4FC8010995009709F03EC1F80112
:1028400000851185EACFF3E0FF120EC08F8988233F
:1028500009F440C0823061F440E867E089EB95E11B
:102860000E941316811148CF81E28093EB0047CF7D
:10287000813029F440E86BE08DEA95E1F1CF8330B7
:1028800099F70E945C0DDC011296ED90FC908E0190
:102890000F5F1F4F6801E114F10479F0D701ED914A
:1028A000FC910680F781E02DB801C7010995080F5A
:1028B000111DF701E084F184EECFD8011C92F601DE
:1028C00001900020E9F73197BF016C197D0940E0C4
:1028D000C601C6CF67E975E1FB01449150E080E88D
:1028E0000E941F0E09CF973009F4BECF983021F413
:1028F00081E08093F10000CF993009F0FDCE837024
:1029000009F0B2CFEAEBF1E081E031E096E321910A
:10291000222371F08093E9003093EB00DF011197DF
:102920002C912093EC009093ED008F5F873079F726
:102930008EE78093EA001092EA008F898093180254
:10294000DBCE8B8D9C8D1092E900109206021092C6
:1029500005029093040280930302898D811192C035
:102960008E899D89913A49F4813209F07DCF47E003
:1029700050E065E071E080E0B3CF913209F074CFB0
:10298000833269F48F89988DB0E0A0E080930101D3
:1029900090930201A0930301B0930401ADCE803265
:1029A00069F48091E80082FFFCCF67E085E091E068
:1029B0000E94760E8BEF8093E8009ECE823209F063
:1029C0009BCE8F8980930C01EEEFFFE78591949168
:1029D0008B3F9C4D51F1E0E0F8E080910501909132
:1029E0000601A0910701B0910801803B9440A10528
:1029F000B105F1F480910C0180FD1AC0EE3F8AE030
:102A0000F80789F587E797E79183808380916000D5
:102A10008093070288E19BE00FB6F894A895809315
:102A200060000FBE9093600067CEEEEFFAE0D5CF66
:102A3000808191818737974709F05ECEA895809174
:102A4000600088618093600080910702809360003D
:102A5000EE3F2AE0F20789F08091FE0A9091FF0A8A
:102A60009183808349CE808191818737980751F285
:102A70009093FF0A8093FE0AC5CF1092FF0A10922E
:102A8000FE0A3ACE0E945C0DDC0112960D911C915B
:102A90000115110509F4E8CED801ED91FC910190E2
:102AA000F081E02DBE016B5E7F4FC8010995811159
:102AB00023CEF80100851185EBCF181619060CF40A
:102AC0001BCED2CEF1E0FF12BECE6BE975E104CF92
:102AD0001F920F920FB60F9211242F933F938F9353
:102AE0009F93AF93BF938091F0019091F101A091DA
:102AF000F201B091F3013091E60123E0230F2D376D
:102B000058F50196A11DB11D2093E6018093F001B7
:102B10009093F101A093F201B093F3018091E7014A
:102B20009091E801A091E901B091EA010196A11DFF
:102B3000B11D8093E7019093E801A093E901B09360
:102B4000EA01BF91AF919F918F913F912F910F908B
:102B50000FBE0F901F90189526E8230F0296A11D17
:102B6000B11DD2CF1F920F920FB60F9211242F9347
:102B70003F934F935F936F937F938F939F93AF9305
:102B8000BF93EF93FF938091E2019091E301A091B5
:102B9000E401B091E501892B8A2B8B2B09F440C00D
:102BA0008091E10181110BC088B190E4892788B937
:102BB0008091E001882319F088B1805888B980910C
:102BC000E2019091E301A091E401B091E5011816B2
:102BD00019061A061B069CF48091E2019091E3010C
:102BE000A091E401B091E5010197A109B109809399
:102BF000E2019093E301A093E401B093E501FF911A
:102C0000EF91BF91AF919F918F917F916F915F9164
:102C10004F913F912F910F900FBE0F901F901895DD
:102C20000E94AD0FECCFEF92FF920F931F93CF93C3
:102C3000DF93F82E192FE62E042F81E0860F880FE0
:102C40000E94F10D83E00E94F10DCF2DD12FEC0EEB
:102C5000FD2EF11CCE15DF05B9F007FF13C0FE01F4
:102C600084910E94F10D182F80E00E94F10D8123C4
:102C700021968111EFCFDF91CF911F910F91FF909E
:102C8000EF9008958881EDCF81E0F5CFEDE1F6E09A
:102C90001382128288EE93E0A0E0B0E084839583F3
:102CA000A683B78384EC91E0918380838FEF9FEFBD
:102CB00095878487E7ECF6E01382128286ED91E037
:102CC000918380838CE09BE090937C0680937B06CD
:102CD00080E090E890937A068093790646983E9A31
:102CE00047983F9AEDEAF6E0108211821282138231
:102CF000148215821682178280E090E0A0E8B0E08E
:102D000080879187A287B3871486158616861786D3
:102D1000118A108A138A128A80E090E4958B848B42
:102D2000178A168AE5E9F6E0108211821282138270
:102D30001486158616861786118A108A178A168AAF
:102D400080E090E0AEEDBFEF84839583A683B783E8
:102D500080E090E0A0E9B0E080879187A287B38708
:102D6000138A128A80E098E0958B848BEDE7F6E079
:102D70001082118212821382148615861686178697
:102D8000118A108A178A168A80E090E0AAEDBFEFB8
:102D900084839583A683B78380E090E0A4E9B0E0C4
:102DA00080879187A287B387158A148A138A128A2B
:102DB0000895CF93DF9300D000D0CDB7DEB77894DD
:102DC00084B5826084BD84B5816084BD85B5826030
:102DD00085BD85B5816085BD80916E0081608093E1
:102DE0006E0010928100809181008260809381004A
:102DF000809181008160809381008091800081605A
:102E000080938000809191008260809391008091F6
:102E10009100816080939100809190008160809307
:102E200090008091C10084608093C1008091C100B6
:102E300082608093C1008091C10081608093C10055
:102E40008091C30081608093C3008091C000826044
:102E50008093C0008091C20081608093C200809105
:102E60007A00846080937A0080917A0082608093F7
:102E70007A0080917A00816080937A0080917A0054
:102E8000806880937A0010921802109208021092C3
:102E90000A028091D70081608093D70080EA8093F6
:102EA000D80089B5806189BD89B5826089BD09B4C2
:102EB00000FEFDCF61E070E080E090E00E94D50E62
:102EC0008091D8008F7C80618093D8008091E00051
:102ED000807F8093E0008091E1008E7E8093E1000E
:102EE0008DE08093E200559A209A81EC80937C00DB
:102EF00085B1806F85B984B1877E84B984B1876ECE
:102F000084B95E9A5F988AB1806D8AB9769A6E9814
:102F100081B3806F81BB899880B38D7080BB80E561
:102F20008CBD81E08DBD85E090E00E945A105F9AD3
:102F300085E090E00E945A105E985C98ECEFF9E012
:102F400084918EBD00000DB407FEFDCF31960AE0DE
:102F5000E930F007A9F75C9A81E8809364008091DA
:102F600065008160809365000E94921080E80E9455
:102F700087108823A9F05C9885EA8EBD00000DB407
:102F800007FEFDCF5C9A2E982F982D9880916400B3
:102F900080628093640081E083BF889513BEFCCF7C
:102FA00084E00E948710882309F448C02D9884E8A3
:102FB0000E9487108823E1F00E94581088EC90E06E
:102FC0000E945A102F9882E090E00E94FE1E8F3FD0
:102FD00029F06FEF82E090E00E94061F84EF91E0FD
:102FE0000E945A102F9A84E80E9487108111FBCF0B
:102FF00084E10E9487108823E1F00E94581088EC39
:1030000090E00E945A102E9882E090E00E94FE1EEE
:10301000882329F060E082E090E00E94061F84EFA0
:1030200091E00E945A102E9A84E10E94871081112B
:10303000FBCF88EC90E00E945A10B2CF0E9458104B
:1030400082E090E00E94C512882309F458C03E9A9D
:103050003F9A81E08093EF0181E090E00E94C512E9
:10306000182F1470712E81FF15C011112E9801EFC9
:103070001FEF1C830B8308E010E08CE6E82EF12C98
:1030800080E40E948710882309F43EC02E9A2F9A6C
:103090000E94581082E390E00E945A100E945F1034
:1030A0008111F8CF80E1809300011092FE0110920F
:1030B000FD010E94A10F10920202109201028FB72F
:1030C000F8944091F0015091F1016091F2017091FA
:1030D000F3018FBF8091F501142F181B812F909160
:1030E000F401992309F4EAC01093F6011092F40157
:1030F00080E090E0892B19F30E940000E0CF10924D
:10310000EF013E983F98A8CF772039F02B813C8182
:103110002430310511F42E9A2F9881E00E94120D6F
:103120002B813C8137FF03C03195219531092770F0
:1031300033278B819C8197FD0796B3E09595879502
:10314000BA95E1F74B815C8157FF05C00197D80123
:10315000A21BB30B9D01BC017695762F6627779550
:103160006795635E7D4FB0E0A0E02801421A530AE4
:103170008E3FEFEF9E0709F446C048E550E0FD01A1
:10318000EC55F64F5F014B01F0E88F0E911C8F3F1D
:103190009807C9F0F501E41BF50B64906701C41AA8
:1031A000D50AC60ED71EE62DF0E0022E02C0EE0FA5
:1031B000FF1F0A94E2F7FA83E983F6016080F98140
:1031C0006F2AF601608221153105C9F0F501E41B73
:1031D000F50B64906701C41AD50AC80CD91CE62DFA
:1031E000F0E0042C02C0F595E7950A94E2F7FA8323
:1031F000E983F6016080F9816F2AF601608241500F
:10320000510909F0C4CF0196A85ABF4F60587F4FAB
:10321000A03BB10509F0ACCF0E9492108FE090E086
:103220000E945A102B813C812F5F3F4F3C832B83A0
:103230002931310509F024CF772011F02F9A2D98EC
:1032400080E991E00E945A100E94581081E090E0BD
:103250000E94C51280FF1ECF8AE090E00E94C51236
:103260009FEF980F9E3F08F015CF22E330E0309398
:10327000EE012093ED0128E330E03093EC01209340
:10328000EB010BE010E01A830983682F87EC96E0CE
:103290000E94D01189819A810E94C51209811A81E8
:1032A0000F5F1F4F1A8309830131110571F70E94C7
:1032B000921088EE93E00E945A10ECCE909100019B
:1032C000191748F48F5F891708F012CF81E083BF88
:1032D000889513BE0DCF81E08093F4014093F501F2
:1032E0002091FD013091FE012F5F3F4F3093FE0191
:1032F0002093FD018091F601981708F0A8C05D9811
:10330000809100028093FF010E945F108093000271
:1033100080910102909102028230910509F440C12E
:1033200008F06EC4009709F494C0019709F0B4C086
:103330008091FD019091FE01019711F50E946710A7
:103340000E944A1202E020E040ED52E167E170E0A5
:1033500080E190E00E940F0B809171008D7F80933F
:10336000710081E08093FC0186EC91E19093FB0178
:103370008093FA019093F9018093F8010E94AD0FB8
:103380008091FD019091FE01843B910511F508E1CA
:1033900010E01A83098300E310E040E0B80189815E
:1033A0009A810E94B2110F5F1F4F00341105A9F7D7
:1033B00009811A810F5F1F4F1A830983093611058E
:1033C00051F747E451E160E370E088E190E00E944A
:1033D000DA1080918E06282E382E330C3308809018
:1033E0007D0690907E06A0907F06B09080064501F5
:1033F000BB2497FCB094AB2C10E000E0710122E1FB
:10340000E20EF11C6801C80CD91C0E31110509F43B
:1034100049C03A82298237FE02C01A821982C70146
:1034200031E4E316F10414F080E490E049815A811C
:1034300048175907A4F540E069817A81C6010E94C6
:10344000B21189819A8101969A838983E8CF5D9A26
:1034500057CF8091FD019091FE018130910559F483
:103460000E94671043EE53E170E060E090E080E07E
:103470000E94DA1011C08B35910570F01092FE0198
:103480001092FD010E94A10F81E090E09093020252
:10349000809301020E9433120E94921029CE0F5F86
:1034A0001F4FB0CF8091890690918A06A0918B061C
:1034B000B0918C0640917D0650917E0660917F060A
:1034C00070918006480F591F6A1F7B1F40937D062D
:1034D00050937E0660937F0670938006009181066C
:1034E000109182062091830630918406401751077F
:1034F00062077307C4F400937D0610937E06209341
:103500007F0630938006B095A095909581959F4F4A
:10351000AF4FBF4F8093890690938A06A0938B0686
:10352000B0938C060DC000918506109186062091FF
:103530008706309188060417150726073707DCF23F
:1035400021E08091890690918A06A0918B06B09126
:103550008C06181619061A061B060CF020E060915E
:103560008E06762F770F770B80917F064DED5FE00B
:10357000082E000C990B0E94521088E00E947C10CB
:10358000882309F489CF1092FE011092FD010E9458
:10359000A10F82E090E090930202809301027CCF21
:1035A0008091FD019091FE018130910529F40E94E6
:1035B000671041E65CE058CF853B910508F46CCF7D
:1035C0001092FE011092FD010E94A10F83E090E095
:1035D0009093020280930102809164008E7F809319
:1035E000640080917A00806480937A0080917A00F0
:1035F00086FDFCCF00917800109179000E94B00EFA
:10360000AB01BC01C801B0E0A0E0DC01992788272C
:103610008C019D01040F151F261F371FC901B8011A
:10362000209164002160209364006115710581057B
:10363000910511F00E94F51E8091990690919A06CD
:10364000A0919B06B0919C06809395069093960658
:10365000A0939706B093980680E092E09093A60618
:103660008093A50620E030E041E050E02093A106E1
:103670003093A2064093A3065093A40680E30E94D1
:10368000540C10921A021092190206CF8091A106D2
:103690009091A206A091A306B091A406B7FFCFC156
:1036A0008FEF9FEF092E000CAA0BBB0BDC019927B3
:1036B00088278093A1069093A206A093A306B093B7
:1036C000A40680E20E9487108823F1F08091A10671
:1036D0009091A206A091A306B091A406B7FFB2C133
:1036E00060E070E080EC9FEB20E030E040E857E4E1
:1036F0000E94D61F0E94771F6093A1067093A206B6
:103700008093A3069093A40680E40E9487108823E8
:10371000F1F08091A1069091A206A091A306B0912C
:10372000A406B7FF94C160E070E080E09FEB20E06A
:1037300030E040E857E40E94D61F0E94771F609354
:10374000A1067093A2068093A3069093A40680918D
:10375000A1069091A206A091A306B091A406409163
:103760009506509196066091970670919806480FBD
:10377000591F6A1F7B1F40939506509396066093CE
:103780009706709398060091990610919A062091D9
:103790009B0630919C0640175107620773070CF097
:1037A0005BC100939506109396062093970630937D
:1037B0009806B095A095909581959F4FAF4FBF4FBC
:1037C0008093A1069093A206A093A306B093A406AB
:1037D0008091950690919606A0919706B0919806D3
:1037E00080179107A207B30769F040919D06509199
:1037F0009E0660919F067091A00684179507A60704
:10380000B707E1F40E94A61E2091A7063091A806F2
:10381000AB0177FF04C044275527461B570B609127
:10382000A9067091AA06621B730BCA010E946B2045
:10383000820F931F9093A6068093A50688E00E94AE
:103840007C10882309F440C08091C50681113CC0DA
:103850008091950690919606A0919706B091980652
:10386000AC01BD01415051096E4E7F4F4F3F5F4F3C
:103870006149710548F52091A5063091A606355F8E
:103880004091A1065091A2066091A3067091A406F2
:10389000E1E0E093C50619968093AD069093AE06DD
:1038A000A093AF06B093B0063093BE062093BD063A
:1038B0001092C4061092C3064093B9065093BA06FC
:1038C0006093BB067093BC068091C606882339F0CE
:1038D00081508093C606811102C01092C506809166
:1038E000C506882309F4CFC04091AD065091AE06BD
:1038F0006091AF067091B0066B01FF24D7FCF09485
:10390000EF2C86018091BD069091BE06E92FFF271E
:10391000E7FDFA958090B9069090BA06A090BB0694
:10392000B090BC06480D591D6A1D7B1D4093AD0625
:103930005093AE066093AF067093B0062091C30615
:103940003091C406820F931F9093BE068093BD06EC
:10395000245B3F4F3093C4062093C306AB01772707
:1039600057FD7095672F5A834983892F990F990BBB
:103970002C014E1A5F0A57FE03C05194419451081E
:103980004A018C189D0897FE03C091948194910878
:103990002E2F782E841495042CF42C2D742E9A83BB
:1039A00089838F0149815A81401751074CF0872D37
:1039B000722E282F99818A811A830983092F182F43
:1039C000580189819A81A81AB90AC22E022E000CC8
:1039D000DD08C718D10877FCD394D7FE03C0D19473
:1039E000C194D1087501B7FE03C09FEFE91AF90A27
:1039F000F594E79466246394721614F066246A942E
:103A0000A981BA810A171B07F4F1672D89818414F3
:103A1000950414F46981872D0E946F0C8091C5066E
:103A2000882389F1EC18FD08F7FE03C0760CEA0C38
:103A3000FB1CE981FA813196FA83E983E1CF81E0C9
:103A400090E030CE60E070E080E09FE34DCE60E03B
:103A500070E080EC9FE36BCEC0909D06D0909E06F8
:103A6000E0909F06F090A006C416D506E606F7067D
:103A70000CF0AECEC0929506D0929606E0929706D4
:103A8000F092980696CE8091FD019091FE01837090
:103A90009927892B79F52DE031E095E150E2F90184
:103AA00040E080816FEC680F653008F07CC08F5F6C
:103AB000808375964F5F4830A1F791502F5F3F4F3D
:103AC0009111EDCF90E080E05EE2FC01E557FE4F02
:103AD00036E02589203209F072C04081403309F078
:103AE00067C05083315075973F3F99F701968531F4
:103AF000910559F70E9467100E944A12809195061D
:103B000090919606A0919706B0919806AC01BD01E0
:103B1000415051096E4E7F4F4F3F5F4F61497105D4
:103B200008F056C021E04091A1065091A206609194
:103B3000A3067091A40614161506160617060CF0B7
:103B400020E06091A606762F770F770B4FEC5BE0B5
:103B5000CD010E9452108091C506882369F06091C2
:103B6000BE06762F770F770B8091AF0641E0082EC7
:103B7000000C990B0E94B21188E00E9487108823E4
:103B800009F48ACC84E00E947C10882309F484CC58
:103B90001092FE011092FD010E94A10F10920202EC
:103BA0001092010279CC863309F083CF508381CF04
:103BB0004E3209F097CF208300E3058B93CF2E324E
:103BC00009F090CF4081403309F08CCF20838ACF19
:103BD00080911B0290911C02892B69F41092FE01C6
:103BE0001092FD010E94A10F24E030E03093020208
:103BF00020930102B0CF60E085E30E949012ABCF2A
:103C00008330910509F442CD049709F045CC8091A9
:103C1000FD019091FE010A97D1F50DE010E01A83A5
:103C2000098300E110E040E0B80189819A810E9497
:103C3000B2110F5F1F4F00331105A9F709811A81D7
:103C40000F5F1F4F1A8309830337110551F743E4B0
:103C50005AE060E170E08EE090E00E94DA1062E2EB
:103C600089E50E949012809171008D7F8093710090
:103C700081E08093FC0129E03AE03093FB0120933E
:103C8000FA013093F9012093F8010E94AD0F809161
:103C9000FD019091FE018937910508F4FDCB8091DB
:103CA000F7018111F9CB88E00E948710882309F47D
:103CB000F3CBE4CB8F929F92AF92BF92CF92DF92E1
:103CC000EF92FF92CF93DF93EC01688179818A8133
:103CD0009B81611571058105910521F464E279EDFF
:103CE0008BE597E02DE133EF41E050E00E94141F97
:103CF00049015A019B01AC01A7EAB1E40E94331FBC
:103D00006B017C01ACEEB4EFA50194010E94411F50
:103D1000C60ED71EE81EF91EF7FE06C081E0C81ABF
:103D2000D108E10880E8F80AC882D982EA82FB82D9
:103D3000C701B6019F77DF91CF91FF90EF90DF90A1
:103D4000CF90BF90AF909F908F9008958F929F9249
:103D5000AF92BF92CF92DF92EF92FF926091B50146
:103D60007091B6018091B7019091B801611571050C
:103D70008105910521F464E279ED8BE597E02DE171
:103D800033EF41E050E00E94141F49015A019B01AA
:103D9000AC01A7EAB1E40E94331F6B017C01ACEED9
:103DA000B4EFA50194010E94411FC60ED71EE81E64
:103DB000F91EF7FE06C081E0C81AD108E10880E8C4
:103DC000F80AC092B501D092B601E092B701F09224
:103DD000B801C701B6019F77FF90EF90DF90CF90B9
:103DE000BF90AF909F908F9008956093B5017093AE
:103DF000B6018093B7019093B8010895F999FECF69
:103E000092BD81BDF89A992780B50895262FF9991A
:103E1000FECF1FBA92BD81BD20BD0FB6F894FA9AAD
:103E2000F99A0FBE01960895052E97FB1EF4009493
:103E30000E942B1F57FD07D00E94461F07FC03D08E
:103E40004EF40C942B1F50954095309521953F4F83
:103E50004F4F5F4F089590958095709561957F4F76
:103E60008F4F9F4F08950E94681FA59F900DB49F8C
:103E7000900DA49F800D911D11240895B7FF0C94FF
:103E8000331F0E94331F821B930B0895A1E21A2E49
:103E9000AA1BBB1BFD010DC0AA1FBB1FEE1FFF1FEE
:103EA000A217B307E407F50720F0A21BB30BE40B3E
:103EB000F50B661F771F881F991F1A9469F7609585
:103EC0007095809590959B01AC01BD01CF0108953F
:103ED000A29FB001B39FC001A39F700D811D11244B
:103EE000911DB29F700D811D1124911D08950E9496
:103EF0007E1F6894B1110C94D01F08950E94B51FC5
:103F000088F09F5798F0B92F9927B751B0F0E1F09A
:103F1000660F771F881F991F1AF0BA95C9F714C04A
:103F2000B13091F00E94CF1FB1E008950C94CF1FE3
:103F3000672F782F8827B85F39F0B93FCCF3869583
:103F400077956795B395D9F73EF4909580957095E0
:103F500061957F4F8F4F9F4F089557FD9058440FA5
:103F6000551F59F05F3F71F04795880F97FB991FD8
:103F700061F09F3F79F08795089512161306140695
:103F8000551FF2CF4695F1DF08C016161706180622
:103F9000991FF1CF86957105610508940895E894FD
:103FA000BB2766277727CB0197F908950E94E91F61
:103FB0000C945A200E944C2038F00E94532020F08C
:103FC000952311F00C9443200C94492011240C9457
:103FD000D01F0E94AD1F70F3959FC1F3950F50E065
:103FE000551F629FF001729FBB27F00DB11D639FAB
:103FF000AA27F00DB11DAA1F649F6627B00DA11D51
:10400000661F829F2227B00DA11D621F739FB00DF6
:10401000A11D621F839FA00D611D221F749F332766
:10402000A00D611D231F849F600D211D822F762FFF
:104030006A2F11249F5750409AF0F1F088234AF0DC
:10404000EE0FFF1FBB1F661F771F881F9150504048
:10405000A9F79E3F510580F00C9443200C94D01F8B
:104060005F3FE4F3983ED4F3869577956795B795CF
:10407000F795E7959F5FC1F7FE2B880F911D9695E9
:10408000879597F9089597F99F6780E870E060E059
:1040900008959FEF80EC089500240A9416161706E1
:1040A00018060906089500240A9412161306140629
:1040B00005060895092E0394000C11F4882352F08C
:1040C000BB0F40F4BF2B11F460FF04C06F5F7F4F44
:1040D0008F4F9F4F089597FB072E16F4009407D03B
:1040E00077FD09D00E947F2007FC05D03EF4909513
:1040F00081959F4F0895709561957F4F0895AA1BF4
:10410000BB1B51E107C0AA1FBB1FA617B70710F0C2
:10411000A61BB70B881F991F5A95A9F780959095F4
:10412000BC01CD010895EE0FFF1F0590F491E02D25
:064130000994F894FFCF92
:1041360010FFFFFFFF00E10000000000002020202C
:104146002020202020202020202020202020202069
:104156002020202020202020202020202020202059
:104166002020202020202020202020202020202049
:104176002020202020202020202020202020202039
:104186002020202020202020202020202020202029
:1041960057572020202020202020202020202020AB
:1041A6002020202020575720202020202020205764
:1041B6005720202020202020202057572020202054
:1041C60020202057575757202020202020202057D6
:1041D600572020202020202057575757572020208F
:1041E60020202057570100000000C18081000000F8
:1041F60000000000700D080F910D860DD70D950D6E
:0E420600B30D00000000D011830EC212C112D1
:00000001FF
