:100000000C94AD070C94D5070C94D5070C94D50728
:100010000C94D5070C94D5070C94D5070C94D507F0
:100020000C94D5070C94D5070C94C00F0C942F108A
:100030000C94D5070C94D5070C94D5070C94D507D0
:100040000C94D5070C94D5070C94D5070C94D507C0
:100050000C94D5070C94D5070C94D5070C94611219
:100060000C94D5070C94D5070C94D5070C94D507A0
:100070000C94D5070C94D5070C94D5070C94D50790
:100080000C94AB120C94D5070C94D5070C94D5079F
:100090000C94D5070C94D5070C94D5070C94D50770
:1000A0000C94D5070C94D5070C94D50706080000CE
:1000B0000C0C121212120C0C0000000000000C0CB0
:1000C0000C0C0000000000000C0C1E1E1E1E0C0C70
:1000D00000000C0C12122121212112120C0C2D2DCA
:1000E00012122121212112122D2D21211212000084
:1000F0000000121221212121000000000000000058
:100100002121802BACD44AD3AA44A800800000004F
:1001100000000000000000000000000000000000DF
:1001200000000000000000000000000000000000CF
:1001300000000000000000000000000000000000BF
:1001400000000000000000000000000000000000AF
:10015000000000000000000000000000000000009F
:10016000000000000000000000000000000000008F
:10017000000000000000000000000000A040AC12E1
:10018000AB84D2B9AAD5F5EE55F84A11AAC0000041
:10019000000000000000000000000000000000005F
:1001A000000000000000000000000000000000004F
:1001B000000000000000000000000000000000003F
:1001C000000000000000000000000000000000002F
:1001D000000000000000000000000000000000001F
:1001E000000000000000000000000000000000000F
:1001F000000000000000000000002A91AAE45AEF6D
:1002000055FF55AA59D5AA4E55B7E915AA41800000
:10021000800000000000000000000000000000005E
:1002200000000000000000000000000000000000CE
:1002300000000000000000000000000000000000BE
:1002400000000000000000000000000000000000AE
:10025000000000000000000000000000000000009E
:10026000000000000000000000000000000000008E
:100270000000000000000000A0A4EA1BABA553AEE4
:100280005FABD5BBABD5AA5555BBD7EF54B85A9188
:10029000AA44A000000000000000000000000000D0
:1002A000000000000000000000000000000000004E
:1002B00000000000000000000000000080C040E0DE
:1002C000B0E02010A000800000000000000000004E
:1002D000000000000000000000000000000000001E
:1002E000000000000000000000000000000000000E
:1002F000000000000000A811A9E452EF54BB55AA69
:1003000055AAB55BAAD5AA55ABBB5B13AD5BB516B9
:10031000AA44AA0000000000000000000000000045
:1003200000000000000000000000000000000000CD
:1003300000000000000000000040AAF164BF5DAEB4
:100340007AAA55EB5AA46A15BA74E00000000000BE
:10035000000000000000000000000000000000009D
:10036000000000000000000000000000000000008D
:10037000000000008044AA117FBB55EE55BB55AA72
:10038000D5AA5E550205020506030503020402050F
:10039000020402010204000000000000000000004E
:1003A000000000000000000000000000000000004D
:1003B000000000000000000402040502010705021D
:1003C00005020703020605030204020102040204F7
:1003D000000000000000000000000000000000001D
:1003E000000000000000000000000000000000000D
:1003F00000040200020402060503050205030506C7
:100400000702050500000000003E5B4F5B3E3E6BAF
:100410004F6B3E1C3E7C3E1C183C7E3C181C577D9E
:10042000571C1C5E7F5E1C00183C1800FFE7C3E7EA
:10043000FF0018241800FFE7DBE7FF30483A060EFC
:100440002629792926407F050507407F05253F5A43
:100450003CE73C5A7F3E1C1C08081C1C3E7F1422B3
:100460007F22145F5F005F5F06097F017F0066895E
:10047000956A606060606094A2FFA29408047E04A4
:100480000810207E201008082A1C08081C2A0808CA
:100490001E101010100C1E0C1E0C30383E3830068A
:1004A0000E3E0E06000000000000005F0000000786
:1004B000000700147F147F14242A7F2A12231308B4
:1004C000646236495620500008070300001C224190
:1004D000000041221C002A1C7F1C2A08083E080834
:1004E00000807030000808080808000060600020E4
:1004F000100804023E5149453E00427F40007249C7
:100500004949462141494D331814127F102745456A
:1005100045393C4A49493141211109073649494980
:1005200036464949291E00001400000040340000EE
:100530000008142241141414141400412214080257
:10054000015909063E415D594E7C1211127C7F49CA
:100550004949363E414141227F4141413E7F49491F
:1005600049417F090909013E414151737F0808084B
:100570007F00417F41002040413F017F081422411C
:100580007F404040407F021C027F7F0408107F3E76
:100590004141413E7F090909063E4151215E7F09E3
:1005A000192946264949493203017F01033F40404A
:1005B000403F1F2040201F3F4038403F6314081435
:1005C0006303047804036159494D43007F4141416D
:1005D0000204081020004141417F0402010204404E
:1005E00040404040000307080020545478407F28D2
:1005F0004444383844444428384444287F385454C8
:10060000541800087E090218A4A49C787F080404EA
:100610007800447D40002040403D007F1028440089
:1006200000417F40007C047804787C08040478381A
:1006300044444438FC1824241818242418FC7C084A
:10064000040408485454542404043F44243C4040C7
:10065000207C1C2040201C3C4030403C442810287A
:10066000444C9090907C4464544C440008364100C3
:100670000000770000004136080002010204023C3D
:100680002623263C1EA1A161123A4040207A38540C
:100690005455592155557941215454784121555487
:1006A000784020545579400C1E52721239555555D8
:1006B00059395454545939555454580000457C41C3
:1006C0000002457D420001457C40F0292429F0F0DC
:1006D000282528F07C545545002054547C547C0A2D
:1006E000097F4932494949323248484832324A48FA
:1006F00048303A4141217A3A42402078009DA0A0FA
:100700007D39444444393D4040403D3C24FF24244D
:10071000487E4943662B2FFC2F2BFF0929F620C06A
:10072000887E090320545479410000447D413048BB
:10073000484A32384040227A007A0A0A727D0D19FE
:10074000317D2629292F28262929292630484D4060
:1007500020380808080808080808382F10C8ACBA5C
:100760002F102834FA00007B000008142A142222DB
:10077000142A14089500220095AA005500AAAA552B
:10078000AA55AA000000FF00101010FF0014141456
:10079000FF001010FF00FF1010F010F0141414FCF4
:1007A000001414F700FF0000FF00FF1414F404FC11
:1007B000141417101F10101F101F1414141F0010F2
:1007C0001010F0000000001F101010101F1010106B
:1007D00010F010000000FF1010101010101010107A
:1007E000FF10000000FF140000FF00FF00001F10BA
:1007F000170000FC04F414141710171414F404F474
:100800000000FF00F714141414141414F700F71464
:100810001414171410101F101F141414F4141010B3
:10082000F010F000001F101F0000001F1400000057
:10083000FC140000F010F01010FF10FF141414FF4F
:10084000141010101F00000000F010FFFFFFFFFF4A
:10085000F0F0F0F0F0FFFFFF0000000000FFFF0FDE
:100860000F0F0F0F38444438447C2A2A3E147E026E
:10087000020606027E027E02635549416338444403
:100880003C04407E201E2006027E020299A5E7A5B8
:10089000991C2A492A1C4C7201724C304A4D4D3029
:1008A0003048784830BC625A463D3E494949007E4E
:1008B0000101017E2A2A2A2A2A44445F44444051E5
:1008C0004A444040444A51400000FF0103E080FF99
:1008D000000008086B6B083612362436060F090F25
:1008E00006000018180000001010003040FF010141
:1008F000001F01011E00191D1712003C3C3C3C006A
:1009000000000000F0F89C8E8783878E9CF8F00032
:1009100000FEFF0303030303070EFCF80000FEFFC5
:100920000303030303070EFCF80000FFFF000000B1
:1009300000000000FFFF0000FEFF8383838383C766
:10094000EE7C380000F8FC0E07030303070EFCF8EA
:1009500000003F7FE0C08080C0E07F3FFFFF0101DB
:100960000101010101FFFF0000FFFF0C0C0C0C1C3A
:100970003E77E3C100007FFFC0C0C0C0C0E0703F51
:100980001F00001F3F70E0C0C0C0E0703F1F0000AC
:100990007FFFC1C1C1C1C1E3773E1C00001F3F7092
:1009A000E0C0C0C0E0703F1F000000000001FFFF7A
:1009B00001000000D5F08D14A1C881CFD9F1AF207E
:1009C000001210007C38FCF0FCF0F8F0FFB2FFBA27
:1009D000FFB2FFBAFFB2FFB4FFF0FE70FE7CFFAEC5
:1009E000FF2EFF1C7F003E000000010001000100FF
:1009F00007020701070003000100010001000100D8
:100A00000100010001000100000000003E1C7F2EDB
:100A1000FFAEFF7CFF70FEF0FEB4FFB2FFBAFFB284
:100A2000FFBAFFB2FFF0FFF0F8F0FC38FC007C00EA
:100A300000000000010001000100010001000100B0
:100A40000100010003010702070007000100010087
:100A500001000004081E29251E223F2000322929FA
:100A6000261221251A0C0A3F08172525191E2525AF
:100A700018013905031A25251A0629291E1E1800F2
:100A8000E040F0E0F8F0FCF8FCF8FEFCFEFCFEFCB8
:100A9000FEFCFFFEFFFEFFFEFFFEFFFEFFFEFF7EF1
:100AA000FF3EFF3EFF7CFF1CFEFCFEFCFEF8FEF856
:100AB000FEB4FFAEFF5EFF4EFF00FF00000001002E
:100AC0000301070307030F070F071F0F3F177F2FB0
:100AD000FF4FFFBFFFCFFF8FFFCFFFBFFF4EFF2EA8
:100AE000FF177F0F3F071F070F030F030F051F0E91
:100AF0001F0F1F0E1F001F0000000000000000005D
:100B000000000000000000000000000000000100E4
:100B100003010301030103000300010000000000C2
:100B200000000000000000000000000000000000C5
:100B300000000000FF4EFF5EFFAEFFB4FFF8FEF8BE
:100B4000FEFCFEFCFE1CFE7CFF3EFF3EFF7EFFFE29
:100B5000FFFEFFFEFFFEFFFEFFFEFFFCFFFCFEFCB4
:100B6000FEFCFEF8FEF8FCF0FCE0F840F000E000CF
:100B70001F0E1F0F1F0E1F051F030F030F070F0769
:100B80001F0F3F177F2EFF4EFFBFFFCFFF8FFFCFFF
:100B9000FFBFFF4FFF2FFF177F0F3F071F070F03F9
:100BA0000F03070107000300010000000000000020
:100BB0000000000000000000000000000000000035
:100BC0000000000001000301030103010300030012
:100BD0000100000000000000000000000000000014
:100BE00000000000000000500FA49295ACA4225316
:100BF000B292959C4DC94A56B22253B29295ACC856
:100C000094AC64252B72E5D2D974295595AA4A95DE
:100C100052F9745E91A7D34AA6A353329D56E44A73
:100C200056B29215593AAD643A3A252B594945A620
:100C300064252B395B3AAD64BAC7D2ACB3ADD3E906
:100C4000E8D2E9EC74E97476F67D3A9FBB743A77A2
:100C5000E96C3A39B6665FA7B3D3A7D3D9D9679FF2
:100C600075B659679F155B12000000000044447C74
:100C70007C7C48441C1C1800686C7C5454547C7C5C
:100C800078406404045C7C7C7460747C4C040400D4
:100C900044447D7D7D40400044447C7C7C48044449
:100CA0007C7C7840400038387C7C54545458580040
:100CB0000000000000000000000000000000000034
:100CC00000000070F0F8888A92FEFEFE80007070CE
:100CD000F8F8A8A8A8B0B00000B0B8B8E8E8E8E80C
:100CE000E8680008F8F8F8F8908888F8F070007064
:100CF00070F8F8888888F8F87070008888FAFAFA2E
:100D00008000808282FEFEFE80007070F8F8A8A845
:100D1000A8B0B0008888F8F8F8908838383000001B
:100D200000000000000000000000000000000000C3
:100D300000000000000000000000000000020203AC
:100D40000303030202000000000000000000000096
:100D50000000000000000000000000000000000093
:100D60000000000000000000000000000000000083
:100D70000000000000000000007F3FC02C6EB7762E
:100D8000FB7636BB95DBEDCA6E99ECF6ABBEEAABF3
:100D90005EF52A0CD9AD4EA7D3E998EC96C96EBF83
:100DA000D5AD6EB59DCD6EBFEAABBEEA55AFC29074
:100DB000DDEA74BAED96C96ED57ABDB25B26BBB5D5
:100DC000CBF5DB2D93DD32D9EDB7BAD5ADAC52C53D
:100DD00064B75FF5555FF5AA5731D9EDAB5EF5AA5B
:100DE000AD92F0573AFA74F4E9E8D2E9743A9D0EFC
:100DF0004DE9743A9D4E47978E2E1DDAD2E9743A2A
:100E00009D0E5DE9743A1D6D3A4AA7ECABBEDC5508
:100E10009FFAE672CA7EEA5B9DDA2AE7DB2EDD7A6C
:100E2000F96D97BEEDF6ABBEEAAB5EF5542955BB46
:100E3000FAAAAFFAAA6F7583C74A6FB7DBED76B629
:100E4000EDECDBD9B6B36F67DB6EB7DBED76B6EDF5
:100E500076BBDD6E83BD425BA0EBB2B5CA553A9F4F
:100E6000CF676B95AB743ED9C94EE607EFB64F76A8
:100E7000DEB95467BB94ECAECFA7E5D96AB5723939
:100E8000C5AF64252B59912959C94A2A3225D369FE
:100E900025D369452565252BA9C894AC64256753DE
:100EA000B292959C2F3225D36945A664252B39979C
:100EB0009495AC644597CD66B3D9D4B292955464F9
:100EC0004AA6D3D12959C94A4932A5D349452565EE
:100ED000252BA9C894AC642515992A59C94A497883
:100EE0002B9F4F563A9B8D2F1B6835080B00020233
:100EF00002000009040000010202000005240010A5
:100F0000010524010101042402060524060001074D
:100F100005810310004009040100020A00000007D7
:100F20000502024000000705830240000004030997
:100F30000412010002EF020140412336800001014A
:100F400002030141726475696E6F204C4C4300418D
:100F5000726475626F7900001C1411241FBECFEFFC
:100F6000DAE0DEBFCDBF11E0A0E0B1E0E2E6FBE3F6
:100F700002C005900D92A63EB107D9F726E0A6EE75
:100F8000B1E001C01D92A93DB207E1F717E0CDEA3B
:100F9000D7E004C02197FE010E94A41DCC3AD107DE
:100FA000C9F70E94C3140C94AF1D0C9400008091EB
:100FB000F60108956F927F928F929F92AF92BF92A7
:100FC000CF92DF92EF92FF920F931F93CF93DF9315
:100FD0006C01FA011491319654913196C12FD0E0F1
:100FE000222309F1EE24E394F12C852F877011F46C
:100FF000F12CE12CA52FA695A695A695AE0DBF2D9B
:10100000B11DAC9FC001AD9F900DBC9F900D1124F0
:10101000033011F4880F991F289FD001299FB00D2C
:101020001124EA0FFB1FD601AC0FBD1F1A161B06B9
:101030000CF0F6C080E8C816D1040CF0F1C0CB016A
:10104000850F911D181619060CF0EAC06034710561
:101050000CF0E6C0309709F4E3C0362F3770CB01AF
:1010600077FD079623E0959587952A95E1F7282F38
:1010700077FF04C0332311F02FEF280FEE24FF2455
:10108000EC18FD08D7FC02C0F12CE12C90E89C196B
:10109000A038B1050CF4912F9E19622F022E000C7E
:1010A000770B462F40952F3F0CF040E0BB24B394C4
:1010B000852F877009F4B12C569556955695B50E27
:1010C0006B0D711D693071051CF058E0B52EB21A18
:1010D000B41A240F50E82503D0011124AC0DBD1D16
:1010E000AE0DBF1D149FE00CF11C1124C32E032E66
:1010F000000CDD08033009F446C0AF014E0D5F1D42
:101100006FEF70E0032E02C0660F771F0A94E2F7BC
:1011100060957095972E8B2C820E821609F480C0F4
:101120008D01085E1D4FF12CE12CE91630F5FA0116
:10113000EE0DFF1DE491F0E03F010C2C02C0660CA7
:10114000771C0A94E2F727FD05C0F8018081862309
:1011500086298083332359F027304CF45801F0E876
:10116000AF0EB11CF5018081892187298083FFEFB3
:10117000EF1AFF0A0F5F1F4FD8CF2F5F4C0F5D1F75
:10118000A058BF4FCACFC92ED12CEE0CFF1CEE0DBC
:10119000FF1DA85EBD4F60E870E06C197D09CC1999
:1011A000DD098E01000F111F41E050E07A01032E8E
:1011B00001C0EE0C0A94EAF7592F4B2D892E932E7D
:1011C000CF93DF93ED01EF96EF962296A590C59011
:1011D000992059F0AE9C5001CE9C600127302CF430
:1011E000F880D094FD20FB28F99222233AF0FC905D
:1011F000C094FC20FA28FD920C94FF0811965A9591
:1012000029F74A9551F0582D23951124E00FF11D2F
:10121000A60FB11DC60FD11DD9CFDF91CF911124DB
:10122000DF91CF911F910F91FF90EF90DF90CF90C2
:10123000BF90AF909F908F907F906F9008954CE0FB
:1012400051E095E130E020E0FA0160E0708177350F
:1012500019F080832F5F3F4F75966F5F6830B1F74D
:1012600091504F5F5F4F9111EFCF30931702209352
:10127000160208950F931F93462F2091B8063091C0
:10128000B906211530446CF40091A8061091A90606
:101290002091AA063091AB060115110520483105B1
:1012A000BCF01092C0068091C10681110EC08091E1
:1012B0001402909115028530910514F485E090E0B8
:1012C000059790931502809314021F910F91089532
:1012D00090E0542F5770E42FE695E695E69560E888
:1012E000E69F90011124FC01E85EFD4FE20FF31F21
:1012F000208130E061E070E0052E02C0660F771FAC
:101300000A94E2F72623372302C0359527955A958C
:10131000E2F72130D1F60B97E5E0F0E0BF010E9443
:101320007C1D9B01653188F6642F6551770BCB01DD
:10133000BF010E947C1D683040F685E1869FF00168
:10134000879FF00D1124E45FFE4FE20FF31F8081B1
:10135000873509F4A6CF803309F0B7CF8091C10655
:10136000811103C083E08093C10685E1869FF0016F
:10137000879FF00D1124E45FFE4FE20FF31F81E31E
:101380008083809116029091170201979093170223
:1013900080931602809114029091150245E1640336
:1013A000F0011124E45FFE4FE20FF31F5081503231
:1013B00009F00196615098F784CF80E0E8E1F2E00F
:1013C00081118FEF00248193819381938193039402
:1013D000D1F70895E8E1F2E0A0E0B8E000800EBCAB
:1013E0008111012C1197A0FDFDCF0192B9F70DB429
:1013F0000895FC0180911302882311F13FB7F894FE
:1014000082E08093E9002091F200822F90E018168C
:10141000190614F481E090E0882339F0289844E616
:10142000409312024091F1004083222339F0209131
:10143000F200211103C02BE62093E8003FBF08957E
:101440008FEF9FEF08952FB7F89483E08093E90022
:101450009091E800892F807295FF04C09091F2006E
:1014600080E4891B2FBF089580910A0281110DC06D
:1014700082E08093060284E08093070210920902C2
:101480001092080281E080930A0286E092E00895BB
:10149000CF93DF931F92CDB7DEB76983DC01ED9167
:1014A000FC910280F381E02D41E050E0BE016F5FCE
:1014B0007F4F09950F90DF91CF91089583E080933E
:1014C000E9008091F200882319F08AE38093E80014
:1014D00008950E94230A90E00895CF93DF931F920E
:1014E000CDB7DEB7FC018485958597FD08C02FEF49
:1014F0003FEF358724870F90DF91CF910895CE017C
:1015000001960E94F909019719F4898190E0F3CFBF
:101510008FEF9FEFF0CF0F931F93CF93DF931F9227
:10152000CDB7DEB78C01FC018485958597FF0BC094
:10153000CE0101960E94F909019771F4898190E02A
:10154000F80195878487F801848595850F90DF9150
:10155000CF911F910F9108958FEF9FEFF1CFFC0175
:101560008485958597FD0BC09FB7F89482E08093A2
:10157000E9008091F2009FBF90E0019608959FB727
:10158000F89482E08093E9008091F2009FBF90E0A0
:10159000089540910002509101022091FE01309186
:1015A000FF0142175307B4F49091E8009570E1F3FE
:1015B0009091E80092FD19C08093F10080910002A3
:1015C0009091010201968F739927892B19F48EEF60
:1015D0008093E8008091000290910102019690931F
:1015E00001028093000281E0089580E00895DF9277
:1015F000EF92FF920F931F93CF93DF93D82E8A0120
:10160000EB017B01E40EF51ECE15DF0559F0D7FE88
:1016100012C0FE0184910E94C90A21968111F4CF63
:101620000FEF1FEFC801DF91CF911F910F91FF9036
:10163000EF90DF9008958881EECF0F931F93CF93A3
:10164000DF931F92CDB7DEB782E0898342E450E09A
:101650006BEE7EE080E80E94F70A0E94340ADC010B
:1016600012960D911C910115110589F0D801ED918B
:10167000FC910280F381E02DBE016F5F7F4FC801B6
:10168000099597FD04C0F80100851185ECCF89818B
:101690000F90DF91CF911F910F910895615030F01D
:1016A0002091F100FC0120830196F8CF289884E670
:1016B000809312020895AF92BF92CF92DF92EF9281
:1016C000FF920F931F93CF93DF936C017B018B01EC
:1016D000040F151FEB015E01AE18BF08C017D1073C
:1016E00059F06991D601ED91FC910190F081E02DC6
:1016F000C6010995892B79F7C501DF91CF911F911B
:101700000F91FF90EF90DF90CF90BF90AF90089532
:101710003FB7F8948091F2019091F301A091F40108
:10172000B091F50126B5A89B05C02F3F19F0019691
:10173000A11DB11D3FBFBA2FA92F982F8827BC012B
:10174000CD01620F711D811D911D42E0660F771F53
:10175000881F991F4A95D1F708958F929F92AF9253
:10176000BF92CF92DF92EF92FF926B017C010E94B9
:10177000880B4B015C01C114D104E104F104B9F000
:101780000E94880B681979098A099B09683E734091
:101790008105910580F321E0C21AD108E108F10822
:1017A00088EE880E83E0981EA11CB11CE4CFFF9048
:1017B000EF90DF90CF90BF90AF909F908F90089563
:1017C0008F929F92AF92BF92CF92DF92EF92FF9251
:1017D0000F931F93CF93DF936C017B018A0180915C
:1017E0000B01882309F45CC080911302882309F45B
:1017F00057C08091050280FF05C08091E0008260A3
:101800008093E000E801B12C8AEFA82E93E0892EA6
:101810002AE3922E209711F4BB20D9F10E94230ACB
:1018200081110AC0AA94AA20D9F161E070E080E099
:1018300090E00E94AD0BEECF8C171D0611F00CF05E
:101840008C2F9FB7F8948092E9002091E80025FD45
:1018500002C09FBFDFCF282F30E0C21BD30BF701A0
:10186000815020F041914093F100FACFE20EF31E37
:10187000BB2021F09092E800B12CEBCF8091E800E2
:1018800085FDE7CF9092E800BB24B394209709F33D
:10189000F3CF5D9884E680930402101611063CF0A5
:1018A00081E090E0F6019383828310E000E0C801BC
:1018B000DF91CF911F910F91FF90EF90DF90CF902C
:1018C000BF90AF909F908F9008952091E601E09196
:1018D000E901F091EA01CF0102969093EA01809329
:1018E000E901222319F085919491089580819181D5
:1018F0000895E1E7F0E080818D7F80831092910070
:10190000469847981092FB0108950F9303E00E94B8
:10191000DA070F9108952D9A0895BC0190E080E0B8
:101920000C94AD0B8FB18095807F669B88601C9B6B
:10193000846008951F93CF93DF93DC0130E020E0B3
:1019400050E040E011E0C1E0D0E02617370791F108
:1019500014968C911497811115C014961C931497AA
:1019600012968D919C911397ED91FC911197E80F30
:10197000F91FE4911596EC931597019613969C9395
:101980008E93129714969C91149715968C91159797
:10199000892349F0FE01022E02C0EE0FFF1F0A94B8
:1019A000E2F74E2B5F2B990F14969C9314972F5FA1
:1019B0003F4FCBCFCA01DF91CF911F9108952F9256
:1019C0003F924F925F926F927F928F929F92AF92CF
:1019D000BF92CF92DF92EF92FF920F931F93CF931C
:1019E000DF9300D000D000D01F92CDB7DEB75C01EE
:1019F0002B015A8349831C821B821D821E8268E050
:101A000070E0CE0101960E949A0C01963C0168E0BC
:101A100070E0CE0101960E949A0C7C0161E070E0BA
:101A2000CE0101960E949A0C93012A0D3B1D1216BD
:101A300013060CF083C097012F5F3F4FA901440D9F
:101A4000551D141615060CF079C053E055944794B3
:101A50005A95E1F7890137FF02C0095F1F4F43E044
:101A6000159507954A95E1F727703327232B11F039
:101A70000F5F1F4F282E21E02F83312CF12CE12CFA
:101A8000D12CC12CC016D1060CF058C088248394E8
:101A9000912C61E070E0CE0101960E949A0C892B96
:101AA00021F482E0880E911CF4CFB401CE0101969E
:101AB0000E949A0C019650E040E048175907D8F56B
:101AC000222011F02F81322AEF81EE0F71F5D20121
:101AD000AC0DBD1DBD016F5F7F4F69307105A0F476
:101AE000B5016E0D7F1D6038710570F4B695BA2F83
:101AF000AA27B795A795AA0DBB1DAE0DBF1DA85E61
:101B0000BD4F2C91322A3C922FEFE21AF20AE614D2
:101B1000F70474F02FEFC21AD20A21E02F83F12CC0
:101B2000E12C4F5F5F4F3E2EC8CFEF83E32DF9CFFF
:101B300021E02F83F6CF81E02826A4CF27960FB689
:101B4000F894DEBF0FBECDBFDF91CF911F910F91F3
:101B5000FF90EF90DF90CF90BF90AF909F908F90CD
:101B60007F906F905F904F903F902F9008958038B6
:101B70009105B8F460347105A0F420E191E061FDB5
:101B800094E060FD990F62FD9295687F269FD001D9
:101B90001124A80FA85EBD4F8C9140FF03C0892B74
:101BA0008C93089590958923FBCF2F923F924F926B
:101BB0005F926F927F928F929F92AF92BF92CF92DD
:101BC000DF92EF92FF920F931F93CF93DF93CDB7E6
:101BD000DEB72A970FB6F894DEBF0FBECDBF9A834B
:101BE00089836A3061F5DC0155968C91B8E08B9F52
:101BF00090011124E981FA8181899289820F931FD2
:101C0000928B818B108A178681E090E02A960FB61E
:101C1000F894DEBF0FBECDBFDF91CF911F910F9122
:101C2000FF90EF90DF90CF90BF90AF909F908F90FC
:101C30007F906F905F904F903F902F9008956D3000
:101C400019F329813A813A872987D9011F96AD90E6
:101C5000BC90B0E8AB16B1040CF07BC0F901C188B0
:101C6000D288F0E4CF16D1040CF073C0D901559698
:101C70006C90559745E09501649E200D311D11240F
:101C8000121613060CF065C0262C312C910153E07E
:101C9000220F331F5A95E1F72C0D3D1D1216130626
:101CA0000CF057C05496BC91BB83E985FA85F38943
:101CB000FC83649FB00111249B012C5F3B4F3A834E
:101CC0002983712CE981FA818491F5E07F1201C0AA
:101CD00080E0460138E0532E282F30E03E832D83EC
:101CE0004C8080FF4B80411004C03B818C813817B1
:101CF000E1F010E000E00615C0F4D501A00FB11F1F
:101D0000B887AF83F12CE12CE61460F4B701680DBD
:101D1000791D442D8F8198850E94B70DBFEFEB1A76
:101D2000FB0AF2CF0F5F1F4FE6CF8D819E81959505
:101D300087955A94820C931C5110CECF7394E981ED
:101D4000FA813196FA83E983A20CB31CF6E07F1284
:101D5000B9CFA985BA8555962C915597422F50E059
:101D60001F968D919C91B6E02B9F800D911D1124A3
:101D7000E985FA85908B87872689222309F444CF49
:101D80006AEF64039001659F300D112420583F4F86
:101D9000281739070CF038CFDF010190F081E02DD2
:101DA0000190F081E02D6AE0CD0109952DCF0895D5
:101DB000089590E080E00895CF92DF92EF92FF9235
:101DC0000F931F93CF93DF9302E020E042E051E0B6
:101DD00065E170E090E080E00E94DA078CE0E82E98
:101DE00081E0F82ECBE0D0E0670105E110E0F601DC
:101DF000808120ED280F4CEA50E0B801273038F000
:101E00008E3241F420E04CEA50E06D5F7F4FCE010E
:101E10000E94850CF5E1CF0ED11C0B5F1F4F0D33D7
:101E2000110529F725968FEFE81AF80AC437D1056E
:101E3000D9F6DF91CF911F910F91FF90EF90DF9036
:101E4000CF9008950C940F1C0E94AA1D0F931F930E
:101E5000CF93DF93EC011092CA061092C9060E943C
:101E6000790CD093FD01C093FC01C130D10539F547
:101E70008091800690918106A0918206B0918306A0
:101E80008093780690937906A0937A06B0937B06A8
:101E9000109289061092880680E090E8AFEFBFEFBD
:101EA0008093840690938506A0938606B093870658
:101EB00080E2DF91CF911F910F910C941F0923971E
:101EC00009F059C0809164008E7F809364008091F6
:101ED0007A00806480937A0080917A0086FDFCCF3E
:101EE000C0917800D09179000E94880BAB01BC01B1
:101EF000CE01B0E0A0E0DC01992788278C019D018C
:101F0000040F151F261F371FC901B8012091640057
:101F1000216020936400611571058105910511F020
:101F20000E94061C8091940690919506A0919606B9
:101F3000B09197068093900690939106A093920695
:101F4000B093930680E092E09093A1068093A00660
:101F500080E090E0A1E0B0E080939C0690939D0625
:101F6000A0939E06B0939F0680E30E941F091092E3
:101F7000150210921402DF91CF911F910F910895D5
:101F80001F920F920FB60F9211248F939F938091FF
:101F9000E1009091E100937F9093E10083FF0FC0F7
:101FA0001092E90091E09093EB001092EC0092E324
:101FB0009093ED001092130298E09093F00082FF4E
:101FC00022C093E09093E9009091F200992319F0D8
:101FD0009AE39093E80090910402992341F0909144
:101FE0000402915090930402911101C05D9A909166
:101FF0001202992341F09091120291509093120293
:10200000911101C0289A84FF18C08091E2008E7E51
:1020100081608093E2008091E1008F7E8093E100F7
:10202000809105028E7E8061809305029F918F9141
:102030000F900FBE0F901F90189580FFF7CF8091E3
:10204000E2008E7E80618093E2008091E1008E7ECE
:102050008093E100809105028E7E8160E5CF1F9222
:102060000F920FB60F921124CF92DF92EF92FF9250
:102070000F931F932F933F934F935F936F937F9390
:102080008F939F93AF93BF93EF93FF93CF93DF9380
:10209000CDB7DEB76C97DEBFCDBF1092E90080915F
:1020A000E80083FF25C068E0CE0145960E944E0BF4
:1020B00082EF8093E8008D8987FF39C09091E80016
:1020C00090FFFCCF982F907609F034C19E894F89FC
:1020D000588D2F89F88C911131C0803861F580912D
:1020E00003028093F1001092F1008EEF8093E800DC
:1020F0006C960FB6F894DEBF0FBECDBFDF91CF91C7
:10210000FF91EF91BF91AF919F918F917F916F91CF
:102110005F914F913F912F911F910F91FF90EF9001
:10212000DF90CF900F900FBE0F901F9018959EEFED
:102130009093E800C7CF1092F100D5CF913059F4B9
:102140008111D3CF4130510581F6809103028D7FFB
:1021500080930302CACF933049F48111C6CF413036
:10216000510519F6809103028260F2CF953041F457
:102170008091E80080FFFCCF20682093E300B5CF7A
:10218000963009F0A9C00B8D1C8D22E01092E90059
:102190001092010210920002F2122EC01092FF0162
:1021A0001092FE010E941D0B1F8299E09983FA8212
:1021B00091E09E8390EA98879AEF99872091000298
:1021C00030910102275F3F4F3C832B838D83109218
:1021D000E90010920102109200021093FF01009397
:1021E000FE0149E050E0BE016F5F7F4F80E00E943A
:1021F000F70A0E941D0B79CF1093FF010093FE0197
:102200000E94340ADC0112960D911C9101151105F2
:1022100009F451C1D801ED91FC910480F581E02DC4
:10222000BE016B5E7F4FC8010995009709F03EC162
:10223000F80100851185EACFF3E0FF120EC08F8907
:10224000882309F440C0823061F440E867E08FE4FD
:102250009FE00E94A413811148CF81E28093EB009C
:1022600047CF813029F440E86BE083E49FE0F1CF71
:10227000833099F70E94340ADC011296ED90FC90AD
:102280008E010F5F1F4F6801E114F10479F0D7014F
:10229000ED91FC910680F781E02DB801C701099509
:1022A000080F111DF701E084F184EECFD8011C92D4
:1022B000F60101900020E9F73197BF016C197D0903
:1022C00040E0C601C6CF6DE27FE0FB01449150E0E3
:1022D00080E80E94F70A09CF973009F4BECF983002
:1022E00021F481E08093F10000CF993009F0FDCE18
:1022F000837009F0B2CFE9EBF1E081E031E096E3E1
:102300002191222371F08093E9003093EB00DF01EB
:1023100011972C912093EC009093ED008F5F873004
:1023200079F78EE78093EA001092EA008F89809314
:102330001302DBCE8B8D9C8D1092E900109201026E
:10234000109200029093FF018093FE01898D81110C
:1023500092C08E899D89913A49F4813209F07DCFEE
:1023600047E050E064E071E080E0B3CF913209F0E3
:1023700074CF833269F48F89988DB0E0A0E08093A8
:10238000000190930101A0930201B0930301ADCE2F
:10239000803269F48091E80082FFFCCF67E084E03E
:1023A00091E00E944E0B8BEF8093E8009ECE82322C
:1023B00009F09BCE8F8980930B01EEEFFFE78591AB
:1023C00094918B3F9C4D51F1E0E0F8E08091040145
:1023D00090910501A0910601B0910701803B9440C6
:1023E000A105B105F1F480910B0180FD1AC0EE3F0B
:1023F0008AE0F80789F587E797E7918380838091E2
:1024000060008093020288E19BE00FB6F894A895E3
:10241000809360000FBE9093600067CEEEEFFAE00D
:10242000D5CF808191818737974709F05ECEA895F7
:1024300080916000886180936000809102028093A7
:102440006000EE3F2AE0F20789F08091FE0A909149
:10245000FF0A9183808349CE8081918187379807D5
:1024600051F29093FF0A8093FE0AC5CF1092FF0AA3
:102470001092FE0A3ACE0E94340ADC0112960D91A7
:102480001C910115110509F4E8CED801ED91FC91DC
:102490000190F081E02DBE016B5E7F4FC801099570
:1024A000811123CEF80100851185EBCF181619068E
:1024B0000CF41BCED2CEF1E0FF12BECE61E37FE082
:1024C00004CF1F920F920FB60F9211242F933F93B8
:1024D0008F939F93AF93BF938091F7019091F801F1
:1024E000A091F901B091FA013091F10123E0230F9D
:1024F0002D3758F50196A11DB11D2093F101809350
:10250000F7019093F801A093F901B093FA0180913B
:10251000F2019091F301A091F401B091F5010196BF
:10252000A11DB11D8093F2019093F301A093F401DA
:10253000B093F501BF91AF919F918F913F912F91F2
:102540000F900FBE0F901F90189526E8230F02964C
:10255000A11DB11DD2CF1F920F920FB60F92112461
:10256000CF92DF92EF92FF922F933F934F935F931F
:102570006F937F938F939F93AF93BF93CF93DF938B
:10258000EF93FF938091ED019091EE01A091EF0107
:10259000B091F001892B8A2B8B2B09F446C08091D6
:1025A000EC0181110BC088B190E4892788B9809132
:1025B000EB01882319F088B1805888B98091ED012A
:1025C0009091EE01A091EF01B091F001181619065B
:1025D0001A061B069CF48091ED019091EE01A091EA
:1025E000EF01B091F0010197A109B1098093ED01CC
:1025F0009093EE01A093EF01B093F001FF91EF9162
:10260000DF91CF91BF91AF919F918F917F916F910A
:102610005F914F913F912F91FF90EF90DF90CF907E
:102620000F900FBE0F901F9018950E94650C81159A
:1026300020E8920719F40E94790CE0CF21E0209362
:10264000FB01813020E8920731F41092EA011092E8
:10265000E9010E94650C97FD05C02091E801222345
:1026600009F454C02091E701211150C021E02093CA
:10267000EB01EC01DF77209709F04BC081E08093FC
:10268000EC0146983FE9C32E3FE0D32EE12CF12C1C
:10269000CAEFD0E0E0917606F091770609958111B6
:1026A00003C081E08093EC018091EB01882329F045
:1026B0008091EC01882309F43FC047980E94650C83
:1026C0000097F1F19C01DE010E94791CDC01CB0135
:1026D00029E0B595A795979587952A95D1F71092FA
:1026E00090002AE020939100D0929900C092980027
:1026F0008093ED019093EE01A093EF01B093F00170
:102700008091710082608093710078CF1092EB010C
:10271000B0CF9E0150E040E060E472E48FE090E0D2
:102720000E94251C69017A0181E0C81AD108E108DC
:10273000F1081092EC01AECF4699BFCF479ABECFB9
:102740008FEF9FEFDC01CBCFEF92FF920F931F93A0
:10275000CF93DF93F82E192FE62E042F81E0860FFA
:10276000880F0E94C90A83E00E94C90ACF2DD12F89
:10277000EC0EFD2EF11CCE15DF05B9F007FF13C0DE
:10278000FE0184910E94C90A182F80E00E94C90AA4
:10279000812321968111EFCFDF91CF911F910F916E
:1027A000FF90EF9008958881EDCF81E0F5CF0F93F2
:1027B0001F93CF93DF938C0181E090E00E94220F62
:1027C00080FF32C08AE090E00E94220F9FEF980FB6
:1027D0009E3F50F522E330E0D80150963C932E9373
:1027E0001F9728E330E052963C932E935197CBE00D
:1027F000D0E0D801ED91FC910190F081E02D682F9F
:10280000C8010995CE010E94220F2196C131D10540
:1028100081F780E00E94EA0988EE93E0DF91CF9192
:102820001F910F910C948D0CDF91CF911F910F91FF
:10283000089504970C94D713E8E1F6E0138212820E
:1028400088EE93E0A0E0B0E084839583A683B7830D
:1028500083EC91E0918380838FEF9FEF958784874E
:10286000E2ECF6E0138212821186128680E1838701
:1028700010861782158685ED91E09183808383EE23
:1028800091E095838483108A1786128A118A81E0E9
:10289000838B148A858B168A87ED97E09093770651
:1028A0008093760680E090E8909375068093740696
:1028B00046983E9A47983F9AE8EAF6E010821182DD
:1028C00012821382148215821682178280E090E0B1
:1028D000A0E8B0E080879187A287B3871486158629
:1028E00016861786118A108A138A128A80E090E46D
:1028F000958B848B178A168AE0E9F6E010821182A4
:10290000128213821486158616861786118A108AFB
:10291000178A168A80E090E0AEEDBFEF848395833E
:10292000A683B78380E090E0A0E9B0E0808791873C
:10293000A287B387138A128A80E098E0958B848BF4
:10294000E8E7F6E01082118212821382148615865F
:1029500016861786118A108A178A168A80E090E0F8
:10296000AAEDBFEF84839583A683B78380E090E0D0
:10297000A4E9B0E080879187A287B387158A148A7B
:10298000138A128A0895CF93DF9300D000D0CDB779
:10299000DEB7789484B5826084BD84B5816084BDDF
:1029A00085B5826085BD85B5816085BD80916E00ED
:1029B000816080936E00109281008091810082601E
:1029C000809381008091810081608093810080915B
:1029D000800081608093800080919100826080936C
:1029E000910080919100816080939100809190008E
:1029F0008160809390008091C10084608093C100C9
:102A00008091C10082608093C1008091C10081608B
:102A10008093C1008091C30081608093C300809146
:102A2000C00082608093C0008091C200816080936A
:102A3000C20080917A00846080937A0080917A004D
:102A4000826080937A0080917A00816080937A001E
:102A500080917A00806880937A001092130210921D
:102A60000302109205028091D70081608093D70005
:102A700080EA8093D80089B5806189BD89B582607C
:102A800089BD09B400FEFDCF61E070E080E090E018
:102A90000E94AD0B8091D8008F7C80618093D8001C
:102AA0008091E000807F8093E0008091E1008E7E45
:102AB0008093E1008DE08093E200559A209A81ECAA
:102AC00080937C0085B1806F85B984B1877E84B99D
:102AD00084B1876E84B95E9A5F988AB1806D8AB935
:102AE000769A6E9881B3806F81BB899880B38D7020
:102AF00080BB80E58CBD81E08DBD85E090E00E94CB
:102B00008D0C5F9A85E090E00E948D0C5E985C9839
:102B1000E4EBF9E084918EBD00000DB407FEFDCF1B
:102B2000319629E0E13CF207A9F75C9A81E88093AD
:102B300064008091650081608093650080E00E9460
:102B4000EA090E94920C87FF15C05C9885EA8EBD49
:102B500000000DB407FEFDCF5C9A2E982F982D989B
:102B60008091640080628093640081E083BF8895D7
:102B700013BEFCCF0E94920C82FF48C02D980E9489
:102B8000920C84788438E1F40E948B0C88EC90E0FD
:102B90000E948D0C2F9882E090E00E940F1C8F3FC6
:102BA00029F06FEF82E090E00E94171C84EF91E023
:102BB0000E948D0C2F9A0E94920C84788438D9F34D
:102BC0000E94920C84718431E1F40E948B0C88EC99
:102BD00090E00E948D0C2E9882E090E00E940F1CE5
:102BE000882329F060E082E090E00E94171C84EFC7
:102BF00091E00E948D0C2E9A0E94920C8471843177
:102C0000D9F388EC90E00E948D0CB4CF0E948B0C1D
:102C100082E090E00E94220F882309F450C03E9A7F
:102C20003F9A81E08093F60181E090E00E94220FBC
:102C3000382F3470732E81FF13C031112E9841EF5D
:102C40005FEF5C834B8358E0C52ED12C0CE610E07F
:102C50000E94920C86FF38C02E9A2F9A0E948B0CED
:102C600082E390E00E948D0C0E94920C8111F8CFBB
:102C700080E18093CD0690E080E00E94260F8FB720
:102C8000F8944091F7015091F8016091F901709129
:102C9000FA018FBF8091CE06342F381B832F90917D
:102CA000CF06992309F4B7C03093D0061092CF060F
:102CB00080E090E0892B19F30E940000E0CF109291
:102CC000F6013E983F98B0CF772031F08B819C8100
:102CD000049711F42E9A2F9881E00E94EA092B8123
:102CE0003C8137FF03C03195219531092770332787
:102CF0008B819C8197FD079643E0959587954A9532
:102D0000E1F7EB81FC81F7FF05C00197A601421BAB
:102D1000530B9A01BC017695762F662777956795B8
:102D2000685E7D4FB0E0A0E01601221A330A8E3FA4
:102D30005FEF950709F446C048E550E0FD01E45A0D
:102D4000F64F5F014B01F0E88F0E911C8F3F980703
:102D5000C9F0F501E41BF50B64907801E41AF50A5B
:102D6000E60EF71EE62DF0E0022E02C0EE0FFF1F6A
:102D70000A94E2F7FA83E983F7016080F9816F2A08
:102D8000F701608221153105C9F0F501E41BF50B4F
:102D900064907801E41AF50AE80CF91CE62DF0E0DD
:102DA000022C02C0F595E7950A94E2F7FA83E983CD
:102DB000F7016080F9816F2AF70160824150510963
:102DC00009F0C4CF0196A85ABF4F60587F4FA03B6F
:102DD000B10509F0ACCF80E00E94EA098FE090E0F5
:102DE0000E948D0C2B813C812F5F3F4F3C832B83B6
:102DF0002931310509F02CCF772011F02F9A2D9829
:102E000080E991E00E948D0C0E948B0C82EC96E090
:102E10000E94D71325CF9091CD06391748F48F5FC4
:102E2000891708F045CF81E083BF889513BE40CF56
:102E300081E08093CF064093CE062091C906309161
:102E4000CA062F5F3F4F3093CA062093C906809170
:102E5000D006981708F09BC05D988091CB068093B0
:102E6000CC060E94920C8093CB068091FC0190913D
:102E7000FD018230910509F42CC108F018C40097B7
:102E800009F487C0019709F0A7C08091C906909105
:102E9000CA060197B1F40E94DD091092D40610927F
:102EA000D3061092D2061092D1060E94DC0E02E0E8
:102EB00020E046E65CE067E170E080E190E00E949F
:102EC000DA078091C9069091CA06843B910509F5FD
:102ED00048E150E05A83498300E310E040E0B80144
:102EE00089819A810E94B70D0F5F1F4F0034110531
:102EF000A9F789819A8101969A83898389369105F8
:102F000059F747EE5BE060E370E088E190E00E94F3
:102F1000DF0C80918906482E582E550C550880905C
:102F2000780690907906A0907A06B0907B064501CD
:102F3000BB2497FCB094AB2C10E000E0720192E14E
:102F4000E90EF11C6801C80CD91C0E31110509F4F9
:102F50004AC05A82498257FE02C01A821982C701AA
:102F6000E1E4EE16F10414F080E490E029813A8166
:102F700028173907ACF540E0B901C6010E94B70D2A
:102F800049815A814F5F5F4F5A834983E8CF5D9AE9
:102F900064CF8091C9069091CA06019791F40E946E
:102FA000DD091092D4061092D3061092D206109228
:102FB000D10649E75DE070E060E090E080E00E94CB
:102FC000DF0C8091C9069091CA068B35910520F0DF
:102FD00081E090E00E94260F80E00E94EA0968CE1E
:102FE0000F5F1F4FAFCF8091840690918506A0910F
:102FF0008606B091870640917806509179066091D7
:103000007A0670917B06480F591F6A1F7B1F4093F9
:1030100078065093790660937A0670937B06009148
:103020007C0610917D0620917E0630917F06401728
:10303000510762077307C4F400937806109379066A
:1030400020937A0630937B06B095A0959095819554
:103050009F4FAF4FBF4F8093840690938506A093F8
:103060008606B09387060DC00091800610918106F8
:10307000209182063091830604171507260737072B
:10308000DCF221E08091840690918506A09186066D
:10309000B0918706181619061A061B060CF020E0D8
:1030A00060918906762F770F770B80917A064DE72E
:1030B0005AE0082E000C990B0E94850C8091CC06DA
:1030C00083FD8ACF8091CB0683FF86CF83E090E09B
:1030D00081CF8091C9069091CA06019751F40E9450
:1030E000DD091092D4061092D3061092D2061092E7
:1030F000D1068091C9069091CA068937910508F4D6
:103100006BCFE4CF80919C0690919D06A0919E0686
:10311000B0919F06B7FFCDC18FEF9FEF092E000C36
:10312000AA0BBB0BDC019927882780939C06909300
:103130009D06A0939E06B0939F060E94920C85FF69
:103140001EC080919C0690919D06A0919E06B09114
:103150009F06B7FFB1C160E070E080EC9FEB20E01C
:1031600030E040E857E40E94E71C0E94881C60930E
:103170009C0670939D0680939E0690939F060E94E6
:10318000920C86FF1EC080919C0690919D06A09196
:103190009E06B0919F06B7FF94C160E070E080E0AA
:1031A0009FEB20E030E040E857E40E94E71C0E94DB
:1031B000881C60939C0670939D0680939E06909356
:1031C0009F0680919C0690919D06A0919E06B091CD
:1031D0009F064091900650919106609192067091E1
:1031E0009306480F591F6A1F7B1F40939006509308
:1031F0009106609392067093930600919406109145
:103200009506209196063091970640175107620760
:1032100073070CF05BC10093900610939106209306
:10322000920630939306B095A095909581959F4F07
:10323000AF4FBF4F80939C0690939D06A0939E0630
:10324000B0939F068091900690919106A09192066E
:10325000B091930680179107A207B30769F04091D8
:1032600098065091990660919A0670919B06841772
:103270009507A607B707E1F40E94B71B2091A206A5
:103280003091A306AB0177FF04C044275527461BA6
:10329000570B6091A4067091A506621B730BCA01BF
:1032A0000E947C1D820F931F9093A1068093A0061D
:1032B0008091CC0683FD44C08091CB0683FF40C043
:1032C0008091C00681113CC080919006909191063A
:1032D000A0919206B0919306AC01BD0141505109F5
:1032E0006E4E7F4F4F3F5F4F6149710548F520910A
:1032F000A0063091A106355F40919C0650919D0635
:1033000060919E0670919F06E1E0E093C0061996D9
:103310008093A8069093A906A093AA06B093AB0643
:103320003093B9062093B8061092BF061092BE06DD
:103330004093B4065093B5066093B6067093B706F3
:103340008091C106882339F081508093C106811194
:1033500002C01092C0068091C006882309F4D2C032
:10336000C090A806D090A906E090AA06F090AB06FF
:10337000A701772757FD7095672F8A018091B806BE
:103380009091B906292F332727FD3A958090B406EE
:103390009090B506A090B606B090B706C80CD91CA0
:1033A000EA1CFB1CC092A806D092A906E092AA06CD
:1033B000F092AB06E091BE06F091BF068E0F9F1F04
:1033C0009093B9068093B806E45BFF4FF093BF0675
:1033D000E093BE066701FF24D7FCF094EF2CDA825D
:1033E000C982892F990F990B5C01A21AB30AB7FE03
:1033F00003C0B194A194B1084601841A950A97FEBE
:1034000003C09194819491088A149B040CF475C0B4
:10341000422F382E29813A81201731074CF0832D15
:10342000342E482F99818A811A830983092F182FF6
:10343000380189819A81681A790AC42E042E000CF9
:10344000DD08C318D10837FCD394D7FE03C0D1944C
:10345000C194D108730177FE03C09FEFE91AF90AFE
:10346000F594E79422242394341614F022242A9409
:10347000E981FA810E171F070CF444C0632D89817E
:103480008A149B0414F46981832D0E943A09809167
:10349000C0068823B9F1EC18FD08F7FE03C0320C12
:1034A000E60CF71C29813A812F5F3F4F3A8329832D
:1034B000DFCF81E090E032CE60E070E080E09FE31B
:1034C0004ECE60E070E080EC9FE36BCEC09098063B
:1034D000D0909906E0909A06F0909B06C416D50607
:1034E000E606F7060CF0AECEC0929006D09291069A
:1034F000E0929206F092930696CE3C2C9A838983B2
:10350000890188CF8091C9069091CA068370992756
:10351000892B79F52CE031E095E150E2F90140E0AA
:1035200080816FEC680F653008F07CC08F5F80830E
:1035300075964F5F4830A1F791502F5F3F4F911123
:10354000EDCF90E080E0FC01E657FE4F36E02589A4
:10355000203209F073C04081403309F068C04EE268
:103560004083315075973F3F91F701968531910522
:1035700051F70E94DD091092D4061092D3061092E2
:10358000D2061092D1060E94DC0E80919006909196
:103590009106A0919206B0919306AC01BD014150F5
:1035A00051096E4E7F4F4F3F5F4F6149710508F0E3
:1035B0004EC021E040919C0650919D0660919E0670
:1035C00070919F0614161506160617060CF020E0DB
:1035D0006091A106762F770F770B41EC59E0CD0172
:1035E0000E94850C8091C006882369F06091B9061D
:1035F000762F770F770B8091AA0641E0082E000CFA
:10360000990B0E94B70D0E94920C83FFE5CC80912C
:10361000CC0682FDE1CC8091CB0682FFDDCC90E030
:1036200080E0D8CC863309F083CF508381CF4E32EF
:1036300009F097CF208350E3558B93CF2E3209F0BA
:1036400090CF4081403309F08CCF20838ACF809186
:10365000160290911702892B29F484E090E00E94D1
:10366000260FC0CF809114029091150220E430E023
:103670003A8329832AE0E22EF12CB7010E947C1DB7
:10368000D62E172F02E0282F43E55AE070E060E0C5
:1036900089819A810E94DA078D2D912F49815A8163
:1036A000455051095A834983009739F79BCF83309E
:1036B000910509F427CD049709F08ECC8091C906B5
:1036C0009091CA068739910508F486CC8091FB0158
:1036D000811182CC7DCC8F929F92AF92BF92CF927C
:1036E000DF92EF92FF92CF93DF93EC0168817981B3
:1036F0008A819B81611571058105910521F464E240
:1037000079ED8BE597E02DE133EF41E050E00E9449
:10371000251C49015A019B01AC01A7EAB1E40E94B2
:10372000441C6B017C01ACEEB4EFA50194010E9436
:10373000521CC60ED71EE81EF91EF7FE06C081E019
:10374000C81AD108E10880E8F80AC882D982EA825A
:10375000FB82C701B6019F77DF91CF91FF90EF9079
:10376000DF90CF90BF90AF909F908F9008958F92F1
:103770009F92AF92BF92CF92DF92EF92FF926091B1
:10378000B4017091B5018091B6019091B7016115B6
:1037900071058105910521F464E279ED8BE597E0EF
:1037A0002DE133EF41E050E00E94251C49015A0110
:1037B0009B01AC01A7EAB1E40E94441C6B017C01AF
:1037C000ACEEB4EFA50194010E94521CC60ED71EA8
:1037D000E81EF91EF7FE06C081E0C81AD108E1080C
:1037E00080E8F80AC092B401D092B501E092B60127
:1037F000F092B701C701B6019F77FF90EF90DF907D
:10380000CF90BF90AF909F908F9008956093B40138
:103810007093B5018093B6019093B7010895F9991B
:10382000FECF92BD81BDF89A992780B50895262FC5
:10383000F999FECF1FBA92BD81BD20BD0FB6F89495
:10384000FA9AF99A0FBE01960895052E97FB1EF479
:1038500000940E943C1C57FD07D00E94571C07FC97
:1038600003D04EF40C943C1C509540953095219516
:103870003F4F4F4F5F4F089590958095709561959C
:103880007F4F8F4F9F4F08950E94791CA59F900DE9
:10389000B49F900DA49F800D911D11240895B7FF32
:1038A0000C94441C0E94441C821B930B0895A1E2BB
:1038B0001A2EAA1BBB1BFD010DC0AA1FBB1FEE1FAA
:1038C000FF1FA217B307E407F50720F0A21BB30BF5
:1038D000E40BF50B661F771F881F991F1A9469F771
:1038E00060957095809590959B01AC01BD01CF01CD
:1038F0000895A29FB001B39FC001A39F700D811DC9
:103900001124911DB29F700D811D1124911D0895E8
:103910000E948F1C6894B1110C94E11C08950E94C0
:10392000C61C88F09F5798F0B92F9927B751B0F06F
:10393000E1F0660F771F881F991F1AF0BA95C9F733
:1039400014C0B13091F00E94E01CB1E008950C94D5
:10395000E01C672F782F8827B85F39F0B93FCCF388
:10396000869577956795B395D9F73EF490958095B0
:10397000709561957F4F8F4F9F4F089557FD9058D9
:10398000440F551F59F05F3F71F04795880F97FB23
:10399000991F61F09F3F79F08795089512161306DD
:1039A0001406551FF2CF4695F1DF08C0161617060C
:1039B0001806991FF1CF8695710561050894089541
:1039C000E894BB2766277727CB0197F908950E94D3
:1039D000FA1C0C946B1D0E945D1D38F00E94641D42
:1039E00020F0952311F00C94541D0C945A1D1124B1
:1039F0000C94E11C0E94BE1C70F3959FC1F3950FBF
:103A000050E0551F629FF001729FBB27F00DB11D62
:103A1000639FAA27F00DB11DAA1F649F6627B00DF2
:103A2000A11D661F829F2227B00DA11D621F739FDB
:103A3000B00DA11D621F839FA00D611D221F749FE9
:103A40003327A00D611D231F849F600D211D822F30
:103A5000762F6A2F11249F5750409AF0F1F0882357
:103A60004AF0EE0FFF1FBB1F661F771F881F915084
:103A70005040A9F79E3F510580F00C94541D0C94C2
:103A8000E11C5F3FE4F3983ED4F386957795679504
:103A9000B795F795E7959F5FC1F7FE2B880F911DAE
:103AA0009695879597F9089597F99F6780E870E054
:103AB00060E008959FEF80EC089500240A941616A4
:103AC000170618060906089500240A94121613060C
:103AD000140605060895092E0394000C11F488239A
:103AE00052F0BB0F40F4BF2B11F460FF04C06F5FB6
:103AF0007F4F8F4F9F4F089597FB072E16F400942A
:103B000007D077FD09D00E94901D07FC05D03EF438
:103B1000909581959F4F0895709561957F4F089579
:103B2000AA1BBB1B51E107C0AA1FBB1FA617B707E3
:103B300010F0A61BB70B881F991F5A95A9F78095FF
:103B40009095BC01CD010895EE0FFF1F0590F491F3
:103B5000E02D099481E090E0F8940C94AF1DF89466
:023B6000FFCF95
:103B6200FFFFFFFF00E100000000000020202020F6
:103B72002020202020202020202020202020202043
:103B82002020202020202020202020202020202033
:103B92002020202020202020202020202020202023
:103BA2002020202020202020202020202020202013
:103BB20020202020202020202020202020202057CC
:103BC20057202020202020202020202020202020BC
:103BD2002020202057572020202020202020575707
:103BE2002020202020202020205757202020202065
:103BF2002020575757572020202020202020575779
:103C0200202020202020205757575757202020209F
:103C1200202057570100000000C1808100000000F1
:103C2200000000480AE00B690A5E0AAF0A6D0A8BBF
:103C32000A00000000D50D5B0BD90ED80ED713FC7D
:063C4200FF000019140050
:00000001FF
